:100000000C949E010C94A5030C947E030C94C601E1
:100010000C94C6010C94C6010C94C6010C94C60144
:100020000C94C6010C94CC030C94C6010C94C6012C
:100030000C94C6010C94C6010C94C6010C94C60124
:100040000C9434030C94C6010C94C6010C94C601A4
:100050000C94C6010C94C6010C94C6010C94C60104
:100060000C94C6010C94C60107634236B79BD8A70F
:100070001A39685618AEBAAB558C1D3CB7CC5763CD
:10008000BD6DEDFD753EF6177231BF000000803F7B
:1000900008000000BE922449123EABAAAA2ABECD97
:1000A000CCCC4C3E00000080BEABAAAAAA3E000009
:1000B0000000BF000000803F000000000008417801
:1000C000D3BB4387D1133D190E3CC3BD4282AD2B38
:1000D0003E68EC8276BED98FE1A93E4C80EFFFBE30
:1000E00001C4FF7F3F00000000003A040008FF0F3A
:1000F000FF0FFF0FFF0F00083A0400000000000090
:10010000000000000000000000003A040008FF0F9B
:10011000FF0FFF0FFF0F00083A040000000000006F
:1001200000000000000000000000000000000000CF
:1001300000000000000000000000000000000000BF
:1001400000000000000000000000000000000000AF
:10015000000000000000000000000000000000009F
:1001600000000000000000000000FF0FFF0FFF0F65
:10017000FF0FFF0FFF0FFF0FFF0FFF0FFF0FFF0F0F
:10018000FF0FFF0FFF0FFF0FFF0FFF0FFF0FFF0FFF
:10019000FF0FFF0FFF0FFF0FFF0FFF0FFF0FFF0FEF
:1001A000FF0FFF0FFF0FFF0FFF0F00000000000009
:1001B000000000000000000000000000000000003F
:1001C000000000000000000000000000000000002F
:1001D000000000000000000000000000000000001F
:1001E0000000000000000000000000000A002700DE
:1001F00058009C00F2005901D1015802ED028E0313
:100200003A04F004AD05700637070008C8088F09E6
:10021000520A0F0BC50B710C120DA70D2E0EA60E58
:100220000D0F630FA70FD80FF50FFF0FF50FD80FA6
:10023000A70F630F0D0FA60E2E0EA70D120D710C3A
:10024000C50B0F0B520A8F09C80800083707700644
:10025000AD05F0043A048E03ED025802D1015901B4
:10026000F2009C00580027000A000008C8088F0907
:10027000520A0F0BC50B710C120DA70D2E0EA60EF8
:100280000D0F630FA70FD80FF50FFF0FF50FD80F46
:10029000A70F630F0D0FA60E2E0EA70D120D710CDA
:1002A000C50B0F0B520A8F09C808000837077006E4
:1002B000AD05F0043A048E03ED025802D101590154
:1002C000F2009C00580027000A0000000A002700E6
:1002D00058009C00F2005901D1015802ED028E0332
:1002E0003A04F004AD057006370700000000240052
:1002F00027002A0000000000250028002B0004042D
:1003000004040404040402020202020203030303BD
:100310000303010204081020408001020408102099
:100320000102040810200000000800020100000380
:10033000040700000000000000006A0611241FBE30
:10034000CFEFD8E0DEBFCDBF11E0A0E0B1E0EEE03E
:10035000F6E102C005900D92A830B107D9F721E06F
:10036000A8E0B1E001C01D92A434B207E1F711E0AA
:10037000CEE9D1E004C02197FE010E94FF0ACD39E9
:10038000D107C9F70E94E8040C94050B0C940000F7
:1003900090E0FC01EA5DFC4F2491FC01EE5EFC4F15
:1003A0003491FC01E250FD4FE491EE2309F43CC08E
:1003B000222339F1233091F038F42130A9F0223092
:1003C00001F584B58F7D12C0273091F02830A1F05F
:1003D0002430B9F4809180008F7D03C0809180002B
:1003E0008F77809380000DC084B58F7784BD09C05E
:1003F0008091B0008F7703C08091B0008F7D809393
:10040000B000F0E0EE0FFF1FEC50FD4FA591B4914E
:100410009FB7F894611104C08C913095382302C0C5
:10042000EC913E2B3C939FBF0895CF93DF9390E0D8
:10043000FC01EE5EFC4F2491FC01E250FD4F8491E3
:10044000882361F190E0880F991FFC01E651FD4F70
:10045000C591D491FC01EC50FD4FA591B49161116F
:1004600009C09FB7F8948881209582238883EC91F6
:100470002E230BC0623061F49FB7F8948881322F2D
:10048000309583238883EC912E2B2C939FBF06C03D
:100490008FB7F894E8812E2B28838FBFDF91CF91FF
:1004A00008958E3008F08E508770806480937C00B1
:1004B00080917A00806480937A0080917A0086FD32
:1004C000FCCF809178002091790090E0922B0895E4
:1004D0003FB7F8948091400190914101A091420171
:1004E000B091430126B5A89B05C02F3F19F0019696
:1004F000A11DB11D3FBFBA2FA92F982F8827820FAA
:10050000911DA11DB11DBC01CD0142E0660F771FF9
:10051000881F991F4A95D1F7089508959CB59C7F2F
:10052000282F2370922B9CBD2DB582FB992790F923
:10053000822F8E7F892B8DBD0895589A5F9881E018
:1005400090E0909307018093060108950F931F9305
:100550000E946802009118011091190120911A015E
:1005600030911B01DC01CB01801B910BA20BB30B63
:1005700088399A43A105B105C4F08091000190919A
:10058000010101968530910514F081E090E090938F
:100590000101809300010E9468026093180170932A
:1005A000190180931A0190931B0180910001909191
:1005B00001018230910581F034F40197B1F41F916B
:1005C0000F910C949D028330910549F08430910580
:1005D00061F45F9A5E9805C0599A589802C05E9A75
:1005E000599890930701809306011F910F910895E8
:1005F0008091160190911701892B41F4289A81E08E
:1006000090E0909317018093160105C028981092EE
:100610001701109216010E946802609312017093F4
:100620001301809314019093150108950F931F9364
:100630000E9468020091120110911301209114018F
:1006400030911501DC01CB01801B910BA20BB30B88
:1006500088399A43A105B10524F01F910F910C949C
:10066000F8021F910F9108951F920F920FB60F92EB
:1006700011242F933F938F939F93AF93BF938091B8
:100680003C0190913D01A0913E01B0913F0130911C
:100690003B0123E0230F2D3720F40196A11DB11D4E
:1006A00005C026E8230F0296A11DB11D20933B0132
:1006B00080933C0190933D01A0933E01B0933F0194
:1006C0008091400190914101A0914201B09143017C
:1006D0000196A11DB11D8093400190934101A0930B
:1006E0004201B0934301BF91AF919F918F913F9190
:1006F0002F910F900FBE0F901F9018951F920F9281
:100700000FB60F9211242F933F934F935F936F93E4
:100710007F938F939F93AF93BF93EF93FF93E0915A
:100720000401F09105010995FF91EF91BF91AF91FF
:100730009F918F917F916F915F914F913F912F91F9
:100740000F900FBE0F901F9018951F920F920FB62B
:100750000F9211242F933F934F935F936F937F9347
:100760008F939F93AF93BF93EF93FF93E091020119
:10077000F09103010995FF91EF91BF91AF919F9186
:100780008F917F916F915F914F913F912F910F903A
:100790000FBE0F901F9018951F920F920FB60F92D9
:1007A00011244F925F926F927F928F929F92AF929D
:1007B000BF92CF92DF92EF92FF922F933F934F938E
:1007C0005F936F937F938F939F93AF93BF93CF93D9
:1007D000DF93EF93FF938FE00E9451029C01ACE9FD
:1007E000BFEF0E94F00A2FEF33E040E050E00E949C
:1007F000DD06CA01B9016C597F4F8F4F9F4F0E9490
:10080000490820E030E048EC52E40E949F076093E2
:100810002B0170932C0180932D0190932E018EE07B
:100820000E945102BC01990F880B990B0E94490844
:100830006B017C0120E030E0A9010E949A0787FD4E
:1008400012C020E030EC4FE754E4C701B6010E942B
:10085000F90818165CF4C12C30ECD32E3FE7E32ED8
:1008600034E4F32E03C0C12CD12C760120E030EC0F
:100870004FE754E4C701B6010E949F072BE930E51A
:100880004CE45EE30E946B0920E030E04AE754E468
:100890000E94FE0820E030E0A9010E942E070E947D
:1008A00011086B017C01709311016093100180E1CC
:1008B0000E945102EC01BC01990F880B990B0E9418
:1008C000490860930C0170930D0180930E01909381
:1008D0000F0124E630E0DE010E94F80A88248A94A1
:1008E00023E0922EA12CB12CA50194010E94DD06DB
:1008F000CA01B9010E94490820E030E048EC52E406
:100900000E949F072B013C0160930801709309012D
:1009100080930A0190930B01B601DD0C880B990BB3
:100920000E9449086B017C019B01AC01C301B2012B
:100930000E94FE0860933501709336018093370161
:10094000909338019E01ACE9BFEF0E94F00AA50127
:1009500094010E94DD06CA01B9016C597F4F8F4F87
:100960009F4F0E94490820E030E048EC52E40E948A
:100970009F07A70196010E94FE0860932F017093C4
:100980003001809331019093320182E88093B2006C
:1009900017BAFF91EF91DF91CF91BF91AF919F91E6
:1009A0008F917F916F915F914F913F912F91FF9028
:1009B000EF90DF90CF90BF90AF909F908F907F90FF
:1009C0006F905F904F900F900FBE0F901F901895F3
:1009D000789484B5826084BD84B5816084BD85B51A
:1009E000826085BD85B5816085BD80916E00816026
:1009F00080936E00109281008091810082608093CC
:100A000081008091810081608093810080918000CD
:100A10008160809380008091B10084608093B100F8
:100A20008091B00081608093B00080917A008460F2
:100A300080937A0080917A00826080937A0080911E
:100A40007A00816080937A0080917A008068809338
:100A50007A001092C10081E090E09093270180938A
:100A600026010E948E02C1E0C093250161E080E072
:100A70000E94150261E081E00E94150261E086E0BB
:100A80000E94150261E087E00E94150261E088E0A3
:100A90000E94150260E08EE00E94150260E08FE087
:100AA0000E94150260E080E10E94150262E082E08F
:100AB0000E94150286EA92E090930301809302015E
:100AC000809169008C7F80936900E89A62E083E0FE
:100AD0000E94150286E193E0909305018093040142
:100AE00080916900837F80936900E99A1092B10038
:100AF00082E88093B20017BAC09370001092B000E1
:100B000085E08093B1000E949D020E94F802DD24DE
:100B1000D3940CE010E0C0E0EC2EC0E0FC2E8091FD
:100B2000390190913A010196803491052CF490930B
:100B30003A018093390104C010923A0110923901B0
:100B4000C0913901D0913A01C132D1054CF4609184
:100B5000350170913601809137019091380108C0BC
:100B600060912F017091300180913101909132019B
:100B70000E94110870933401609333018091060143
:100B8000909107018130910531F4FE01EE0FFF1FB6
:100B9000E659FD4F19C08230910531F4FE01EE0F88
:100BA000FF1FE651FE4F10C08330910531F4FE0166
:100BB000EE0FFF1FE659FE4F07C00497D9F4FE0160
:100BC000EE0FFF1FE651FF4F6591749180E090E0BA
:100BD0000E94470820912B0130912C0140912D015A
:100BE00050912E010E94FE080E94180870932A015D
:100BF00060932901809133019091340182309105F5
:100C000038F0880F991F880F991F05970197F1F702
:100C1000C0912901D0912A01809121019091220156
:100C20008C30910511F4DF7008C08A30910511F401
:100C3000D37003C0089709F4DD278091250188232C
:100C400011F02A9805C060E080911D010E94C80142
:100C5000809124018D2590E09C01322F222732952E
:100C6000330F307E90912301892F90E090E4899F8B
:100C7000902D88271124822B932B906120912101A4
:100C800030912201A801421B530B02C0CC0FDD1F83
:100C90004A95E2F7C82BD92BDEBD00000DB407FE44
:100CA000FDCF8EB5CEBD00000DB407FEFDCF8EB5D5
:100CB00080912501882311F02A9A05C061E0809176
:100CC0001D010E94C801E114F10409F428CF0E941B
:100CD000000025CFCF93109223011092240110928F
:100CE000250184E090E0909327018093260181E024
:100CF000809328018AE090E090931E0180931D016B
:100D00008FEF9FEF9093200180931F018CE090E084
:100D1000909322018093210161E08AE00E941502F4
:100D200061E080911F010E94150261E080911D0128
:100D30000E94C80161E080911F010E94C801CFB7E5
:100D4000F89480911C01811127C0E8E0F3E08491C0
:100D5000ECE1F3E09491E82FF0E0EE0FFF1FE65195
:100D6000FD4FA591B491EC91E92321F461E08AE073
:100D70000E94C80161E08AE00E9415028CB5806182
:100D80008CBD8CB580648CBD61E08DE00E94150245
:100D900061E08BE00E94150280911C018F5F8093BF
:100DA0001C01CFBF8CB58F7D8CBD8CB5837F8CBD76
:100DB00080912601CF910C948E02052E97FB1EF494
:100DC00000940E94F40657FD07D00E94FC0607FC21
:100DD00003D04EF40C94F40650954095309521952F
:100DE0003F4F4F4F5F4F0895909580957095619557
:100DF0007F4F8F4F9F4F0895A1E21A2EAA1BBB1B56
:100E0000FD010DC0AA1FBB1FEE1FFF1FA217B307D6
:100E1000E407F50720F0A21BB30BE40BF50B661FEC
:100E2000771F881F991F1A9469F7609570958095B0
:100E300090959B01AC01BD01CF010895A29FB00127
:100E4000B39FC001A39F700D811D1124911DB29FFE
:100E5000700D811D1124911D08955058BB27AA279C
:100E60000E9445070C94BF080E94B10838F00E9408
:100E7000B80820F039F49F3F19F426F40C94AE081A
:100E80000EF4E095E7FB0C94A808E92F0E94D00827
:100E900058F3BA17620773078407950720F079F4AF
:100EA000A6F50C94F2080EF4E0950B2EBA2FA02DA7
:100EB0000B01B90190010C01CA01A0011124FF2707
:100EC000591B99F0593F50F4503E68F11A16F04002
:100ED000A22F232F342F4427585FF3CF4695379501
:100EE0002795A795F0405395C9F77EF41F16BA0BC6
:100EF000620B730B840BBAF09150A1F0FF0FBB1F74
:100F0000661F771F881FC2F70EC0BA0F621F731FBC
:100F1000841F48F4879577956795B795F7959E3F19
:100F200008F0B0CF9395880F08F09927EE0F9795AA
:100F3000879508950E94840808F481E008950E942E
:100F4000B3070C94BF080E94B80858F00E94B1087B
:100F500040F029F45F3F29F00C94A80851110C943B
:100F6000F3080C94AE080E94D00868F39923B1F3FB
:100F7000552391F3951B550BBB27AA2762177307BF
:100F8000840738F09F5F5F4F220F331F441FAA1F53
:100F9000A9F335D00E2E3AF0E0E832D0915050400F
:100FA000E695001CCAF72BD0FE2F29D0660F771FBD
:100FB000881FBB1F261737074807AB07B0E809F0A3
:100FC000BB0B802DBF01FF2793585F4F3AF09E3F28
:100FD000510578F00C94A8080C94F3085F3FE4F3F3
:100FE000983ED4F3869577956795B795F7959F5F6B
:100FF000C9F7880F911D9695879597F90895E1E0B7
:10100000660F771F881FBB1F621773078407BA0715
:1010100020F0621B730B840BBA0BEE1F88F7E09570
:1010200008950E9418086894B1110C94F30808956B
:101030000E94D80888F09F5798F0B92F9927B75188
:10104000B0F0E1F0660F771F881F991F1AF0BA956C
:10105000C9F714C0B13091F00E94F208B1E00895D0
:101060000C94F208672F782F8827B85F39F0B93FC2
:10107000CCF3869577956795B395D9F73EF490951F
:101080008095709561957F4F8F4F9F4F0895E8949D
:1010900009C097FB3EF490958095709561957F4FC0
:1010A0008F4F9F4F9923A9F0F92F96E9BB2793956E
:1010B000F695879577956795B795F111F8CFFAF47E
:1010C000BB0F11F460FF1BC06F5F7F4F8F4F9F4FAF
:1010D00016C0882311F096E911C0772321F09EE80D
:1010E000872F762F05C0662371F096E8862F70E073
:1010F00060E02AF09A95660F771F881FDAF7880F4D
:101100009695879597F90895990F0008550FAA0BA2
:10111000E0E8FEEF16161706E807F907C0F012160A
:101120001306E407F50798F0621B730B840B950B0D
:1011300039F40A2661F0232B242B252B21F4089562
:101140000A2609F4A140A6958FEF811D811D0895FF
:1011500097F99F6780E870E060E008959FEF80EC6A
:10116000089500240A94161617061806090608950D
:1011700000240A9412161306140605060895092E73
:101180000394000C11F4882352F0BB0F40F4BF2BE2
:1011900011F460FF04C06F5F7F4F8F4F9F4F089522
:1011A00057FD9058440F551F59F05F3F71F0479518
:1011B000880F97FB991F61F09F3F79F087950895FD
:1011C000121613061406551FF2CF4695F1DF08C01C
:1011D000161617061806991FF1CF86957105610539
:1011E00008940895E894BB2766277727CB0197F9E1
:1011F00008950E94840808F48FEF08950E94110951
:101200000C94BF080E94B10838F00E94B80820F082
:10121000952311F00C94A8080C94AE0811240C949A
:10122000F3080E94D00870F3959FC1F3950F50E02A
:10123000551F629FF001729FBB27F00DB11D639F88
:10124000AA27F00DB11DAA1F649F6627B00DA11D2E
:10125000661F829F2227B00DA11D621F739FB00DD4
:10126000A11D621F839FA00D611D221F749F332744
:10127000A00D611D231F849F600D211D822F762FDD
:101280006A2F11249F5750409AF0F1F088234AF0BA
:10129000EE0FFF1FBB1F661F771F881F9150504026
:1012A000A9F79E3F510580F00C94A8080C94F30810
:1012B0005F3FE4F3983ED4F3869577956795B795AD
:1012C000F795E7959F5FC1F7FE2B880F911D9695C7
:1012D000879597F90895FA01EE0FFF1F30962105C3
:1012E0003105A1F16115710561F48038BFE39B07F9
:1012F00049F168949038810561F08038BFEF9B0711
:1013000041F099234AF5FF3FE1053105210519F127
:10131000E8940894E795D901AA2329F4AB2FBE2FAE
:10132000F85FD0F310C0FF5F70F4A695E0F7F739CF
:1013300050F019F0FF3A38F49F779F930DD00F903B
:1013400007FC9058089546F00C94AE0860E070E0F9
:1013500080E89FE308954FE79F775F934F933F9314
:101360002F930E94660A2F913F914F915F910E94A7
:10137000FE080C94C30929F416F00C94A8080C94E8
:10138000F2080C94AE080E94D808A8F39638A0F78B
:1013900007F80F92E8942BE33AEA48EB5FE70E94E4
:1013A00014090F920F920F924DB75EB70F920E94E1
:1013B000AE0AE8E6F0E00E94F5094F915F91EF91E7
:1013C000FF91E595EE1FFF1F49F0FE57E0684427A7
:1013D000EE0F441FFA95E1F74195550B0E94280A3C
:1013E0000F9007FE0C941C0A0895DF93CF931F9370
:1013F0000F93FF92EF92DF927B018C01689406C0FD
:10140000DA2EEF010E941109FE01E894A5912591C1
:10141000359145915591A6F3EF010E944507FE01D4
:101420009701A801DA9469F7DF90EF90FF900F9190
:101430001F91CF91DF9108959B01AC0160E070E0B6
:1014400080E89FE30C949F070C94A8080C94E20A90
:101450000E94D808D8F39923C9F3940F511DA3F320
:101460009150504094F059F0882332F0660F771F66
:10147000881F91505040C1F79E3F51052CF7880FAF
:10148000911D9695879597F908955F3FACF0983E2A
:101490009CF0BB27869577956795B79508F4B16062
:1014A0009395C1F7BB0F58F711F460FFE8CF6F5F5A
:1014B0007F4F8F4F9F4FE3CF0C94F30816F00C949F
:1014C000E20A0C94AE0868940C94A8080E94D8080C
:1014D000A8F39923C1F3AEF3DF93CF931F930F9338
:1014E000FF92C92FDD2788232AF02197660F771FE7
:1014F000881FDAF720E030E040E85FEB9FE38839AF
:1015000020F0803E38F021968F770E942E07E0E988
:10151000F0E004C00E942E07EDEBF0E00E94F50918
:101520008B01BE01EC01FB2E6F5771097595771F7A
:10153000880B990B0E94490828E132E741E35FE3F9
:101540000E941109AF2D9801AE01FF900F911F91DC
:10155000CF91DF910E9445070C94BF08FA01DC018E
:10156000AA0FBB1F9B01AC01BF5728F422273327CA
:101570004427507820C0B75190F4AB2F00244695F3
:1015800037952795011CA395D2F3002071F0220F07
:10159000331F441FB395DAF30ED00C942D0761303E
:1015A0007105A0E88A07B94630F49B01AC016627B3
:1015B000772788279078309621F0208331834283E3
:1015C000538308959F3F31F0915020F4879577958C
:1015D0006795B795880F911D9695879597F908950A
:1015E0000E941E07332312F48A1B9B0B0C94FA0AE9
:1015F0000E941E07B7FF0895821B930B0895EE0FFC
:0E160000FF1F0590F491E02D0994F894FFCFA0
:08160E0001008D028D020100B4
:00000001FF
