:100000000C941E020C944A040C9423040C94460293
:100010000C9446020C9446020C9446020C94460240
:100020000C9446020C9471040C9446020C94460203
:100030000C9446020C9446020C9446020C94460220
:100040000C94DD030C9446020C9446020C94460278
:100050000C9446020C9446020C9446020C94460200
:100060000C9446020C94460207634236B79BD8A70D
:100070001A39685618AEBAAB558C1D3CB7CC5763CD
:10008000BD6DEDFD753EF6177231BF000000803F7B
:1000900008000000BE922449123EABAAAA2ABECD97
:1000A000CCCC4C3E00000080BEABAAAAAA3E000009
:1000B0000000BF000000803F000000000008417801
:1000C000D3BB4387D1133D190E3CC3BD4282AD2B38
:1000D0003E68EC8276BED98FE1A93E4C80EFFFBE30
:1000E00001C4FF7F3F00000000000000000000008E
:1000F0000000000000000000000000000000000000
:1001000000000000000000000000000000000000EF
:1001100000000000000000000000000000000000DF
:10012000000000000000000000003A040008FF0F7B
:10013000FF0FFF0FFF0FFF0FFF0FFF0FFF0FFF0F4F
:10014000FF0FFF0FFF0FFF0FFF0FFF0FFF0FFF0F3F
:10015000FF0FFF0FFF0FFF0FFF0FFF0FFF0FFF0F2F
:10016000FF0FFF0FFF0F00083A040000000000001F
:10017000000000000000000000000000000000007F
:10018000000000000000000000000000000000006F
:10019000000000000000000000000000000000005F
:1001A000000000000000000000003A040008FF0FFB
:1001B000FF0FFF0FFF0FFF0FFF0FFF0FFF0FFF0FCF
:1001C000FF0FFF0FFF0FFF0FFF0FFF0FFF0FFF0FBF
:1001D000FF0FFF0FFF0FFF0FFF0FFF0FFF0FFF0FAF
:1001E000FF0FFF0FFF0FFF0FFF0FFF0FFF0FFF0F9F
:1001F000FF0FFF0FFF0FFF0FFF0FFF0FFF0FFF0F8F
:10020000FF0FFF0FFF0FFF0FFF0FFF0FFF0FFF0F7E
:10021000FF0FFF0FFF0FFF0FFF0FFF0FFF0FFF0F6E
:10022000FF0FFF0FFF0FFF0FFF0FFF0FFF0FFF0F5E
:10023000FF0FFF0FFF0FFF0FFF0FFF0FFF0FFF0F4E
:10024000FF0FFF0FFF0FFF0FFF0FFF0FFF0FFF0F3E
:10025000FF0FFF0FFF0FFF0FFF0FFF0FFF0FFF0F2E
:10026000FF0FFF0FFF0FFF0FFF0FFF0FFF0FFF0F1E
:10027000FF0FFF0FFF0FFF0FFF0FFF0FFF0FFF0F0E
:10028000FF0FFF0FFF0FFF0FFF0FFF0FFF0FFF0FFE
:10029000FF0FFF0FFF0FFF0FFF0FFF0FFF0FFF0FEE
:1002A000FF0FFF0FFF0FFF0FFF0F00000000000008
:1002B000000000000000000000000000000000003E
:1002C000000000000000000000000000000000002E
:1002D000000000000000000000000000000000001E
:1002E0000000000000000000000000000A002700DD
:1002F00058009C00F2005901D1015802ED028E0312
:100300003A04F004AD05700637070008C8088F09E5
:10031000520A0F0BC50B710C120DA70D2E0EA60E57
:100320000D0F630FA70FD80FF50FFF0FF50FD80FA5
:10033000A70F630F0D0FA60E2E0EA70D120D710C39
:10034000C50B0F0B520A8F09C80800083707700643
:10035000AD05F0043A048E03ED025802D1015901B3
:10036000F2009C00580027000A000008C8088F0906
:10037000520A0F0BC50B710C120DA70D2E0EA60EF7
:100380000D0F630FA70FD80FF50FFF0FF50FD80F45
:10039000A70F630F0D0FA60E2E0EA70D120D710CD9
:1003A000C50B0F0B520A8F09C808000837077006E3
:1003B000AD05F0043A048E03ED025802D101590153
:1003C000F2009C00580027000A0000000A002700E5
:1003D00058009C00F2005901D1015802ED028E0331
:1003E0003A04F004AD057006370700000000240051
:1003F00027002A0000000000250028002B0004042C
:1004000004040404040402020202020203030303BC
:100410000303010204081020408001020408102098
:10042000010204081020000000080002010000037F
:1004300004070000000000000000260711241FBE72
:10044000CFEFD8E0DEBFCDBF11E0A0E0B1E0ECE936
:10045000F7E102C005900D92AA30B107D9F721E06B
:10046000AAE0B1E001C01D92AC34B207E1F712E09E
:10047000CEE1D2E004C02197FE010E94C60BCD312F
:10048000D107C9F70E948E050C94CC0B0C94000088
:1004900090E0FC01EA5DFB4F2491FC01EE5EFB4F16
:1004A0003491FC01E250FC4FE491EE2309F43CC08E
:1004B000222339F1233091F038F42130A9F0223091
:1004C00001F584B58F7D12C0273091F02830A1F05E
:1004D0002430B9F4809180008F7D03C0809180002A
:1004E0008F77809380000DC084B58F7784BD09C05D
:1004F0008091B0008F7703C08091B0008F7D809392
:10050000B000F0E0EE0FFF1FEC50FC4FA591B4914E
:100510009FB7F894611104C08C913095382302C0C4
:10052000EC913E2B3C939FBF0895CF93DF9390E0D7
:10053000FC01EE5EFB4F2491FC01E250FC4F8491E4
:10054000882361F190E0880F991FFC01E651FC4F70
:10055000C591D491FC01EC50FC4FA591B49161116F
:1005600009C09FB7F8948881209582238883EC91F5
:100570002E230BC0623061F49FB7F8948881322F2C
:10058000309583238883EC912E2B2C939FBF06C03C
:100590008FB7F894E8812E2B28838FBFDF91CF91FE
:1005A00008958E3008F08E508770806480937C00B0
:1005B00080917A00806480937A0080917A0086FD31
:1005C000FCCF809178002091790090E0922B0895E3
:1005D0009FB7F894409148015091490160914A01B8
:1005E00070914B0186B5A89B06C08F3F21F04F5FED
:1005F0005F4F6F4F7F4F9FBF762F652F542F44273C
:100600009A01AB01280F311D411D511DA3E0B0E03F
:100610000E94B807089508959CB59C7F282F2370E9
:10062000922B9CBD2DB582FB992790F9822F8E7F4E
:10063000892B8DBD0895589A5F9881E090E0909342
:1006400003018093020180E490E090930501809380
:10065000040108950F931F930E94E8020091200166
:10066000109121012091220130912301DC01CB0165
:10067000801B910BA20BB30B863A9E40A105B105DE
:10068000C4F080910001909101010196853091059F
:1006900014F081E090E090930101809300010E94AA
:1006A000E8026093200170932101809322019093CE
:1006B0002301809100019091010182309105B1F0F8
:1006C00034F4019711F51F910F910C941B038330A3
:1006D000910579F084309105C1F45F9A5E9890930A
:1006E00003018093020180EC90E00BC0599A589866
:1006F00002C05E9A5998909303018093020180E4AE
:1007000090E090930501809304011F910F9108954B
:1007100080911E0190911F01892B59F461E089E0BD
:100720000E94480281E090E090931F0180931E0197
:10073000089560E089E00E94480210921F01109223
:100740001E0108950F931F930E94E80200911A0161
:1007500010911B0120911C0130911D01DC01CB0186
:10076000801B910BA20BB30B88399A43A105B105ED
:100770000CF10E9488038091180190911901892B36
:1007800041F4289A81E090E0909319018093180138
:1007900005C0289810921901109218010E94880330
:1007A0000E94E80260931A0170931B0180931C0160
:1007B00090931D011F910F9108951F920F920FB6F4
:1007C0000F9211242F933F938F939F93AF93BF93D7
:1007D0008091440190914501A0914601B09147015B
:1007E0003091430126E6230F2D3728F029EE230F01
:1007F0000196A11DB11D2093430180934401909364
:100800004501A0934601B093470180914801909122
:100810004901A0914A01B0914B010196A11DB11D62
:100820008093480190934901A0934A01B0934B01F2
:10083000BF91AF919F918F913F912F910F900FBEDC
:100840000F901F9018951F920F920FB60F921124C0
:100850002F933F934F935F936F937F938F939F93C8
:10086000AF93BF93EF93FF93E0910801F0910901DB
:100870000995FF91EF91BF91AF919F918F917F91DA
:100880006F915F914F913F912F910F900FBE0F90FD
:100890001F9018951F920F920FB60F9211242F934D
:1008A0003F934F935F936F937F938F939F93AF93F8
:1008B000BF93EF93FF93E0910601F0910701099533
:1008C000FF91EF91BF91AF919F918F917F916F9128
:1008D0005F914F913F912F910F900FBE0F901F90FE
:1008E00018951F920F920FB60F9211244F925F929C
:1008F0006F927F928F929F92AF92BF92CF92DF9230
:10090000EF92FF922F933F934F935F936F937F9359
:100910008F939F93AF93BF93CF93DF93EF93FF9307
:100920008FE00E94D1029C01ACE9BFEF0E94B70B9F
:100930002FEF33E040E050E00E949907CA01B9016F
:100940006C597F4F8F4F9F4F0E94100920E030E07D
:1009500048EC52E40E9466086093330170933401BE
:1009600080933501909336018EE00E94D102BC0144
:10097000990F880B990B0E9410096B017C0120E0F4
:1009800030E0A9010E94610887FD12C020E030EC30
:100990004FE754E4C701B6010E94C00918165CF481
:1009A000C12C30ECD32E3FE7E32E34E4F32E03C00A
:1009B000C12CD12C760120E030EC4FE754E4C70184
:1009C000B6010E9466082FEB32EC40E250E40E9430
:1009D000320A20E030E847E754E40E94C50920E0ED
:1009E00030E040E251E40E94F5070E94D8086B0114
:1009F0007C01709317016093160180E10E94D1027F
:100A0000EC01BC01990F880B990B0E9410096093AF
:100A1000120170931301809314019093150124E641
:100A200030E0DE010E94BF0B88248A9423E0922EDE
:100A3000A12CB12CA50194010E949907CA01B9010A
:100A40000E94100920E030E048EC52E40E94660861
:100A50002B013C0160930E0170930F0180931001F4
:100A600090931101B601DD0C880B990B0E941009BF
:100A70006B017C019B01AC01C301B2010E94C5095D
:100A800060933D0170933E0180933F01909340013C
:100A90009E01ACE9BFEF0E94B70BA50194010E9433
:100AA0009907CA01B9016C597F4F8F4F9F4F0E9420
:100AB000100920E030E048EC52E40E946608A701EB
:100AC00096010E94C50960933701709338018093A5
:100AD000390190933A0182E88093B20017BAFF91EE
:100AE000EF91DF91CF91BF91AF919F918F917F91C6
:100AF0006F915F914F913F912F91FF90EF90DF9019
:100B0000CF90BF90AF909F908F907F906F905F90AD
:100B10004F900F900FBE0F901F901895789484B54A
:100B2000826084BD84B5816084BD85B5826085BDE9
:100B300085B5816085BD80916E00816080936E0077
:100B40001092810080918100826080938100809169
:100B5000810081608093810080918000816080931A
:100B600080008091B10084608093B1008091B000DA
:100B700081608093B00080917A00846080937A00D5
:100B800080917A00826080937A0080917A008160FF
:100B900080937A0080917A00806880937A00109226
:100BA000C10081E090E090932F0180932E010E947C
:100BB0000C03C1E0C0932D0161E080E00E9495022A
:100BC00061E081E00E94950261E086E00E9495026A
:100BD00061E087E00E94950261E088E00E94950252
:100BE00061E089E00E94950260E08EE00E9495023B
:100BF00060E08FE00E94950260E080E10E94950233
:100C000062E082E00E9495028AE293E090930701FD
:100C100080930601809169008C7F80936900E89A37
:100C200062E083E00E94950282EA93E090930901DA
:100C30008093080180916900837F886080936900B8
:100C4000E99A1092B10082E88093B20017BAC0937B
:100C500070001092B00085E08093B10060E089E000
:100C60000E9448020E941B03DD24D3940CE010E094
:100C700030E0E32E30E0F32E20914101309142012B
:100C80002F5F3F4F30934201209341018091040137
:100C9000909105012817390724F010924201109213
:100CA0004101C0914101D091420197FD0196959576
:100CB00087958C179D074CF060913D0170913E0126
:100CC00080913F019091400108C06091370170917F
:100CD00038018091390190913A010E94D8087093AF
:100CE0003C0160933B0180910201909103018130AE
:100CF000910531F4FE01EE0FFF1FE659FC4F19C0BC
:100D00008230910531F4FE01EE0FFF1FE651FD4FD9
:100D100010C08330910531F4FE01EE0FFF1FE6593C
:100D2000FD4F07C00497D9F4FE01EE0FFF1FE651F7
:100D3000FF4F6591749180E090E00E940E09209130
:100D400033013091340140913501509136010E94B8
:100D5000C5090E94DF0870933201609331018091D0
:100D60003B0190913C010000000000000000823037
:100D7000910550F09C01220F331F220F331F07975C
:100D8000820F931F0197F1F7C0913101D091320189
:100D90008091290190912A018C30910511F4DF7026
:100DA00008C08A30910511F4D37003C0089709F484
:100DB000DD2780912D01882311F02A9805C060E07D
:100DC000809125010E94480280912C018D2590E0A0
:100DD0009C01322F22273295330F307E90912B01C8
:100DE000892F90E090E4899F902D88271124822BF1
:100DF000932B90612091290130912A01A801421B77
:100E0000530B02C0CC0FDD1F4A95E2F7C82BD92B3C
:100E1000DEBD00000DB407FEFDCF8EB5CEBD0000D7
:100E20000DB407FEFDCF8EB580912D01882311F002
:100E30002A9A05C061E0809125010E944802E114D0
:100E4000F10409F419CF0E94000016CFCF9310923D
:100E50002B0110922C0110922D0184E090E09093D0
:100E60002F0180932E0181E0809330018AE090E091
:100E700090932601809325018FEF9FEF9093280197
:100E8000809327018CE090E090932A0180932901C0
:100E900061E08AE00E94950261E0809127010E9452
:100EA000950261E0809125010E94480261E08091F5
:100EB00027010E944802CFB7F89480912401811144
:100EC00027C0E8E0F4E08491ECE1F4E09491E82FAD
:100ED000F0E0EE0FFF1FE651FC4FA591B491EC91AD
:100EE000E92321F461E08AE00E94480261E08AE09F
:100EF0000E9495028CB580618CBD8CB580648CBDE0
:100F000061E08DE00E94950261E08BE00E94950215
:100F1000809124018F5F80932401CFBF8CB58F7D9A
:100F20008CBD8CB5837F8CBD80912E01CF910C94AC
:100F30000C03052E97FB1EF400940E94B00757FD8A
:100F400007D00E94C30707FC03D04EF40C94B007EF
:100F500050954095309521953F4F4F4F5F4F0895E5
:100F600090958095709561957F4F8F4F9F4F089515
:100F70000E94E507A59F900DB49F900DA49F800D42
:100F8000911D11240895A1E21A2EAA1BBB1BFD017D
:100F90000DC0AA1FBB1FEE1FFF1FA217B307E40758
:100FA000F50720F0A21BB30BE40BF50B661F771FB0
:100FB000881F991F1A9469F7609570958095909590
:100FC0009B01AC01BD01CF010895A29FB001B39F69
:100FD000C001A39F700D811D1124911DB29F700D42
:100FE000811D1124911D08955058BB27AA270E94E6
:100FF0000C080C9486090E94780938F00E947F0939
:1010000020F039F49F3F19F426F40C9475090EF47E
:10101000E095E7FB0C946F09E92F0E94970958F3BC
:10102000BA17620773078407950720F079F4A6F5CD
:101030000C94B9090EF4E0950B2EBA2FA02D0B01DC
:10104000B90190010C01CA01A0011124FF27591B0D
:1010500099F0593F50F4503E68F11A16F040A22F13
:10106000232F342F4427585FF3CF46953795279584
:10107000A795F0405395C9F77EF41F16BA0B620B83
:10108000730B840BBAF09150A1F0FF0FBB1F661FCA
:10109000771F881FC2F70EC0BA0F621F731F841F0D
:1010A00048F4879577956795B795F7959E3F08F033
:1010B000B0CF9395880F08F09927EE0F97958795F5
:1010C00008950E944B0908F481E008950E947A086F
:1010D0000C9486090E947F0958F00E94780940F01C
:1010E00029F45F3F29F00C946F0951110C94BA094F
:1010F0000C9475090E94970968F39923B1F355235D
:1011000091F3951B550BBB27AA276217730784071A
:1011100038F09F5F5F4F220F331F441FAA1FA9F3B0
:1011200035D00E2E3AF0E0E832D091505040E6959E
:10113000001CCAF72BD0FE2F29D0660F771F881FFF
:10114000BB1F261737074807AB07B0E809F0BB0BF2
:10115000802DBF01FF2793585F4F3AF09E3F510506
:1011600078F00C946F090C94BA095F3FE4F3983E51
:10117000D4F3869577956795B795F7959F5FC9F7EF
:10118000880F911D9695879597F90895E1E0660F70
:10119000771F881FBB1F621773078407BA0720F0E9
:1011A000621B730B840BBA0BEE1F88F7E095089552
:1011B0000E94DF086894B1110C94BA0908950E9446
:1011C0009F0988F09F5798F0B92F9927B751B0F031
:1011D000E1F0660F771F881F991F1AF0BA95C9F7BB
:1011E00014C0B13091F00E94B909B1E008950C9497
:1011F000B909672F782F8827B85F39F0B93FCCF34A
:10120000869577956795B395D9F73EF49095809537
:10121000709561957F4F8F4F9F4F0895E89409C057
:1012200097FB3EF490958095709561957F4F8F4F19
:101230009F4F9923A9F0F92F96E9BB279395F6952F
:10124000879577956795B795F111F8CFFAF4BB0FAD
:1012500011F460FF1BC06F5F7F4F8F4F9F4F16C011
:10126000882311F096E911C0772321F09EE8872F9B
:10127000762F05C0662371F096E8862F70E060E057
:101280002AF09A95660F771F881FDAF7880F9695D0
:10129000879597F90895990F0008550FAA0BE0E874
:1012A000FEEF16161706E807F907C0F01216130628
:1012B000E407F50798F0621B730B840B950B39F468
:1012C0000A2661F0232B242B252B21F408950A26CE
:1012D00009F4A140A6958FEF811D811D089597F90E
:1012E0009F6780E870E060E008959FEF80EC0895CC
:1012F00000240A94161617061806090608950024F5
:101300000A9412161306140605060895092E03946E
:10131000000C11F4882352F0BB0F40F4BF2B11F4E2
:1013200060FF04C06F5F7F4F8F4F9F4F089557FD41
:101330009058440F551F59F05F3F71F04795880F43
:1013400097FB991F61F09F3F79F0879508951216DA
:1013500013061406551FF2CF4695F1DF08C0161686
:1013600017061806991FF1CF869571056105089437
:101370000895E894BB2766277727CB0197F908954E
:101380000E944B0908F48FEF08950E94D8090C942D
:1013900086090E94780938F00E947F0920F0952381
:1013A00011F00C946F090C94750911240C94BA096E
:1013B0000E94970970F3959FC1F3950F50E0551F58
:1013C000629FF001729FBB27F00DB11D639FAA279A
:1013D000F00DB11DAA1F649F6627B00DA11D661FE9
:1013E000829F2227B00DA11D621F739FB00DA11D0A
:1013F000621F839FA00D611D221F749F3327A00DC4
:10140000611D231F849F600D211D822F762F6A2F5F
:1014100011249F5750409AF0F1F088234AF0EE0FC4
:10142000FF1FBB1F661F771F881F91505040A9F7F1
:101430009E3F510580F00C946F090C94BA095F3FF0
:10144000E4F3983ED4F3869577956795B795F7952D
:10145000E7959F5FC1F7FE2B880F911D96958795A5
:1014600097F90895FA01EE0FFF1F30962105310517
:10147000A1F16115710561F48038BFE39B0749F163
:1014800068949038810561F08038BFEF9B0741F088
:1014900099234AF5FF3FE1053105210519F1E8944B
:1014A0000894E795D901AA2329F4AB2FBE2FF85F42
:1014B000D0F310C0FF5F70F4A695E0F7F73950F055
:1014C00019F0FF3A38F49F779F930DD00F9007FCE7
:1014D0009058089546F00C94750960E070E080E83B
:1014E0009FE308954FE79F775F934F933F932F9329
:1014F0000E942D0B2F913F914F915F910E94C50942
:101500000C948A0A29F416F00C946F090C94B9090A
:101510000C9475090E949F09A8F39638A0F707F864
:101520000F92E8942BE33AEA48EB5FE70E94DB096D
:101530000F920F920F924DB75EB70F920E94750BEC
:10154000E8E6F0E00E94BC0A4F915F91EF91FF91B5
:10155000E595EE1FFF1F49F0FE57E0684427EE0FA8
:10156000441FFA95E1F74195550B0E94EF0A0F9041
:1015700007FE0C94E30A0895DF93CF931F930F9314
:10158000FF92EF92DF927B018C01689406C0DA2E05
:10159000EF010E94D809FE01E894A59125913591AB
:1015A00045915591A6F3EF010E940C08FE019701A9
:1015B000A801DA9469F7DF90EF90FF900F911F91E7
:1015C000CF91DF9108959B01AC0160E070E080E86D
:1015D0009FE30C9466080C946F090C94A90B0E946D
:1015E0009F09D8F39923C9F3940F511DA3F3915088
:1015F000504094F059F0882332F0660F771F881F0F
:1016000091505040C1F79E3F51052CF7880F911D16
:101610009695879597F908955F3FACF0983E9CF0BA
:10162000BB27869577956795B79508F4B160939534
:10163000C1F7BB0F58F711F460FFE8CF6F5F7F4F22
:101640008F4F9F4FE3CF0C94BA0916F00C94A90B5F
:101650000C94750968940C946F090E949F09A8F373
:101660009923C1F3AEF3DF93CF931F930F93FF92B0
:10167000C92FDD2788232AF02197660F771F881F3F
:10168000DAF720E030E040E85FEB9FE3883920F0B4
:10169000803E38F021968F770E94F507E0E9F0E070
:1016A00004C00E94F507EDEBF0E00E94BC0A8B013C
:1016B000BE01EC01FB2E6F5771097595771F880BE2
:1016C000990B0E94100928E132E741E35FE30E9491
:1016D000D809AF2D9801AE01FF900F911F91CF91C6
:1016E000DF910E940C080C948609FA01DC01AA0F14
:1016F000BB1F9B01AC01BF5728F422273327442787
:10170000507820C0B75190F4AB2F00244695379500
:101710002795011CA395D2F3002071F0220F331FEF
:10172000441FB395DAF30ED00C94F40761307105C1
:10173000A0E88A07B94630F49B01AC0166277727F9
:1017400088279078309621F0208331834283538319
:1017500008959F3F31F0915020F4879577956795D4
:10176000B795880F911D9695879597F908950E94D2
:10177000E507332312F48A1B9B0B0C94C10B0E94C8
:10178000E507B7FF0895821B930B0895EE0FFF1F27
:0C1790000590F491E02D0994F894FFCF2F
:0A179C000100010040000B030B03E5
:00000001FF
