:100000000C941E080C946A0A0C94430A0C9446083B
:100010000C9446080C9446080C9446080C94460828
:100020000C9446080C94910A0C9446080C944608CB
:100030000C9446080C9446080C9446080C94460808
:100040000C94FD090C9446080C9446080C94460840
:100050000C9446080C9446080C9446080C944608E8
:100060000C9446080C94460807634236B79BD8A701
:100070001A39685618AEBAAB558C1D3CB7CC5763CD
:10008000BD6DEDFD753EF6177231BF000000803F7B
:1000900008000000BE922449123EABAAAA2ABECD97
:1000A000CCCC4C3E00000080BEABAAAAAA3E000009
:1000B0000000BF000000803F000000000008417801
:1000C000D3BB4387D1133D190E3CC3BD4282AD2B38
:1000D0003E68EC8276BED98FE1A93E4C80EFFFBE30
:1000E00001C4FF7F3F00000000000000000024006A
:1000F00027002A0000000000250028002B0004042F
:1001000004040404040402020202020203030303BF
:10011000030301020408102040800102040810209B
:100120000102040810200000000800020100000382
:1001300004070000000000000000000000000000B4
:1001400000000000000000000000000000000000AF
:10015000000000000000000000000000000000009F
:10016000000000000000000000000000000000008F
:10017000000000000000000000000000000000007F
:10018000000000000000000000000000000000006F
:10019000000000000000000000000000000000005F
:1001A000000000000000000000000000000000004F
:1001B000000000000000000000003A040008FF0FEB
:1001C000FF0FFF0FFF0FFF0FFF0FFF0FFF0FFF0FBF
:1001D000FF0FFF0FFF0FFF0FFF0FFF0FFF0FFF0FAF
:1001E000FF0FFF0FFF0FFF0FFF0FFF0FFF0FFF0F9F
:1001F000FF0FFF0FFF0FFF0FFF0FFF0FFF0FFF0F8F
:10020000FF0FFF0FFF0FFF0FFF0FFF0FFF0FFF0F7E
:10021000FF0FFF0FFF0FFF0FFF0FFF0FFF0FFF0F6E
:10022000FF0FFF0FFF0FFF0FFF0FFF0FFF0FFF0F5E
:10023000FF0FFF0FFF0F00083A040000000000004E
:1002400000000000000000000000000000000000AE
:10025000000000000000000000000000000000009E
:10026000000000000000000000000000000000008E
:10027000000000000000000000000000000000007E
:10028000000000000000000000000000000000006E
:10029000000000000000000000000000000000005E
:1002A000000000000000000000000000000000004E
:1002B000000000000000000000003A040008FF0FEA
:1002C000FF0FFF0FFF0FFF0FFF0FFF0FFF0FFF0FBE
:1002D000FF0FFF0FFF0FFF0FFF0FFF0FFF0FFF0FAE
:1002E000FF0FFF0FFF0FFF0FFF0FFF0FFF0FFF0F9E
:1002F000FF0FFF0FFF0FFF0FFF0FFF0FFF0FFF0F8E
:10030000FF0FFF0FFF0FFF0FFF0FFF0FFF0FFF0F7D
:10031000FF0FFF0FFF0FFF0FFF0FFF0FFF0FFF0F6D
:10032000FF0FFF0FFF0FFF0FFF0FFF0FFF0FFF0F5D
:10033000FF0FFF0FFF0FFF0FFF0FFF0FFF0FFF0F4D
:10034000FF0FFF0FFF0FFF0FFF0FFF0FFF0FFF0F3D
:10035000FF0FFF0FFF0FFF0FFF0FFF0FFF0FFF0F2D
:10036000FF0FFF0FFF0FFF0FFF0FFF0FFF0FFF0F1D
:10037000FF0FFF0FFF0FFF0FFF0FFF0F0008FF0F13
:10038000FF0FFF0FFF0FFF0FFF0FFF0FFF0FFF0FFD
:10039000FF0FFF0FFF0FFF0FFF0FFF0FFF0FFF0FED
:1003A000FF0FFF0FFF0FFF0FFF0FFF0FFF0FFF0FDD
:1003B000FF0FFF0FFF0FFF0FFF0FFF0FFF0FFF0FCD
:10063000FF0FFF0FFF0FFF0FFF0F00000000000074
:1006400000000000000000000000000000000000AA
:10065000000000000000000000000000000000009A
:10066000000000000000000000000000000000008A
:10067000000000000000000000000000000000007A
:10068000000000000000000000000000000000006A
:10069000000000000000000000000000000000005A
:1006A000000000000000000000000000000000004A
:1006B000000000000000000000000000000000003A
:1006C000000000000000000000000000000000002A
:1006D000000000000000000000000000000000001A
:1006E000000000000000000000000000000000000A
:1006F00000000000000000000000000000000000FA
:1007000000000000000000000000000000000000E9
:1007100000000000000000000000000000000000D9
:1007200000000000000000000000000000000000C9
:1007300000000000000000000000000000000000B9
:1007400000000000000000000000000000000000A9
:100750000000000000000000000000000000000099
:100760000000000000000000000000000000000089
:100770000000000000000000000000000000000079
:100780000000000000000000000000000000000069
:100790000000000000000000000000000000000059
:1007A0000000000000000000000000000000000049
:1007B0000000000000000000000000000000000039
:1007C0000000000000000000000000000000000029
:1007D0000000000000000000000000000000000019
:1007E0000000000000000000000000000000000009
:1007F00000000000000000000000000000000000F9
:1008000000000000000000000000000000000000E8
:1008100000000000000000000000000000000000D8
:1008200000000000000000000000000000000000C8
:100830000000000000000000000010002000300058
:10084000400050006000700080009000A000B000E8
:10085000C000D000E000F0000001100120013001D4
:10086000400150016001700180019001A001B001C0
:10087000C001D001E001F0010002100220023002AC
:10088000400250026002700280029002A002B00298
:10089000C002D002E002F002000310032003300384
:1008A000400350036003700380039003A003B00370
:1008B000C003D003E003F00300041004200430045C
:1008C000400450046004700480049004A004B00448
:1008D000C004D004E004F004000510052005300534
:1008E000400550056005700580059005A005B00520
:1008F000C005D005E005F00500061006200630060C
:10090000400650066006700680069006A006B006F7
:10091000C006D006E006F0060007100720073007E3
:10092000400750076007700780079007A007B007CF
:10093000C007D007E007F00700080F081F082F08BE
:100940003F084F085F086F087F088F089F08AF08AF
:10095000BF08CF08DF08EF08FF080F091F092F099C
:100960003F094F095F096F097F098F099F09AF0987
:10097000BF09CF09DF09EF09FF090F0A1F0A2F0A74
:100980003F0A4F0A5F0A6F0A7F0A8F0A9F0AAF0A5F
:10099000BF0ACF0ADF0AEF0AFF0A0F0B1F0B2F0B4C
:1009A0003F0B4F0B5F0B6F0B7F0B8F0B9F0BAF0B37
:1009B000BF0BCF0BDF0BEF0BFF0B0F0C1F0C2F0C24
:1009C0003F0C4F0C5F0C6F0C7F0C8F0C9F0CAF0C0F
:1009D000BF0CCF0CDF0CEF0CFF0C0F0D1F0D2F0DFC
:1009E0003F0D4F0D5F0D6F0D7F0D8F0D9F0DAF0DE7
:1009F000BF0DCF0DDF0DEF0DFF0D0F0E1F0E2F0ED4
:100A00003F0E4F0E5F0E6F0E7F0E8F0E9F0EAF0EBE
:100A1000BF0ECF0EDF0EEF0EFF0E0F0F1F0F2F0FAB
:100A20003F0F4F0F5F0F6F0F7F0F8F0F9F0FAF0F96
:100A3000BF0FCF0FDF0FEF0FFF0FEF0FDF0FCF0F46
:100A4000BF0FAF0F9F0F8F0F7F0F6F0F5F0F4F0FF6
:100A50003F0F2F0F1F0F0F0FFF0EEF0EDF0ECF0EEA
:100A6000BF0EAF0E9F0E8F0E7F0E6F0E5F0E4F0EDE
:100A70003F0E2F0E1F0E0F0EFF0DEF0DDF0DCF0DD2
:100A8000BF0DAF0D9F0D8F0D7F0D6F0D5F0D4F0DC6
:100A90003F0D2F0D1F0D0F0DFF0CEF0CDF0CCF0CBA
:100AA000BF0CAF0C9F0C8F0C7F0C6F0C5F0C4F0CAE
:100AB0003F0C2F0C1F0C0F0CFF0BEF0BDF0BCF0BA2
:100AC000BF0BAF0B9F0B8F0B7F0B6F0B5F0B4F0B96
:100AD0003F0B2F0B1F0B0F0BFF0AEF0ADF0ACF0A8A
:100AE000BF0AAF0A9F0A8F0A7F0A6F0A5F0A4F0A7E
:100AF0003F0A2F0A1F0A0F0AFF09EF09DF09CF0972
:100B0000BF09AF099F098F097F096F095F094F0965
:100B10003F092F091F090F09FF08EF08DF08CF0859
:100B2000BF08AF089F088F087F086F085F084F084D
:100B30003F082F081F080F080008F007E007D0073C
:100B4000C007B007A007900780077007600750072D
:100B500040073007200710070007F006E006D00620
:100B6000C006B006A0069006800670066006500615
:100B700040063006200610060006F005E005D00508
:100B8000C005B005A00590058005700560055005FD
:100B900040053005200510050005F004E004D004F0
:100BA000C004B004A00490048004700460045004E5
:100BB00040043004200410040004F003E003D003D8
:100BC000C003B003A00390038003700360035003CD
:100BD00040033003200310030003F002E002D002C0
:100BE000C002B002A00290028002700260025002B5
:100BF00040023002200210020002F001E001D001A8
:100C0000C001B001A001900180017001600150019C
:100C100040013001200110010001F000E000D0008F
:100C2000C000B000A0009000800070006000500084
:100C300040003000200010000000000819083208B1
:100C40004B0864087D089608AF08C808E108FA0850
:100C500013092C0945095E0976098F09A809C009FD
:100C6000D909F109090A220A3A0A520A6A0A820AC9
:100C70009A0AB10AC90AE00AF80A0F0B260B3D0BC3
:100C8000540B6B0B820B980BAE0BC50BDB0BF10BF4
:100C9000060C1C0C320C470C5C0C710C860C9A0C6C
:100CA000AF0CC30CD70CEB0CFF0C120D260D390D3D
:100CB0004C0D5F0D710D830D950DA70DB90DCA0D6E
:100CC000DC0DED0DFD0D0E0E1E0E2E0E3E0E4E0E0B
:100CD0005D0E6C0E7B0E8A0E980EA60EB40EC10E23
:100CE000CF0EDC0EE80EF50E010F0D0F190F240FBD
:100CF000300F3A0F450F4F0F590F630F6D0F760FDF
:100D00007F0F870F900F980F9F0FA70FAE0FB50F94
:100D1000BB0FC20FC80FCD0FD30FD80FDC0FE10FE1
:100D2000E50FE90FEC0FF00FF30FF50FF70FF90FC9
:100D3000FB0FFD0FFE0FFE0FFF0FFF0FFF0FFE0F4C
:100D4000FE0FFD0FFB0FF90FF70FF50FF30FF00F6D
:100D5000EC0FE90FE50FE10FDC0FD80FD30FCD0F2C
:100D6000C80FC20FBB0FB50FAE0FA70F9F0F980F85
:100D7000900F870F7F0F760F6D0F630F590F4F0F77
:100D8000450F3A0F300F240F190F0D0F010FF50EFD
:100D9000E80EDC0ECF0EC10EB40EA60E980E8A0E13
:100DA0007B0E6C0E5D0E4E0E3E0E2E0E1E0E0E0EA9
:100DB000FD0DED0DDC0DCA0DB90DA70D950D830DC3
:100DC000710D5F0D4C0D390D260D120DFF0CEB0C46
:100DD000D70CC30CAF0C9A0C860C710C5C0C470C36
:100DE000320C1C0C060CF10BDB0BC50BAE0B980B7D
:100DF000820B6B0B540B3D0B260B0F0BF80AE00A12
:100E0000C90AB10A9A0A820A6A0A520A3A0A220AE4
:100E1000090AF109D909C009A8098F0976095E09EB
:100E200045092C091309FA08E108C808AF08960813
:100E30007D0864084B08320819080008E607CD074A
:100E4000B4079B0782076907500737071E07050786
:100E5000EC06D306BA06A1068906700657063F06B9
:100E600026060E06F605DD05C505AD0595057D05CD
:100E700065054E0536051F050705F004D904C204B3
:100E8000AB0494047D04670451043A0424040E0462
:100E9000F903E303CD03B803A3038E0379036503CA
:100EA00050033C03280314030003ED02D902C602D9
:100EB000B302A0028E027C026A0258024602350288
:100EC000230212020202F101E101D101C101B101CB
:100ED000A201930184017501670159014B013E0193
:100EE0003001230117010A01FE00F200E600DB00D9
:100EF000CF00C500BA00B000A6009C009200890097
:100F0000800078006F0067006000580051004A00C0
:100F100044003D00370032002C00270023001E0053
:100F20001A00160013000F000C000A00080006004B
:100F300004000200010001000000000000000100A8
:100F4000010002000400060008000A000C000F0067
:100F5000130016001A001E00230027002C00320088
:100F600037003D0044004A0051005800600067000F
:100F70006F0078008000890092009C00A600B000FD
:100F8000BA00C500CF00DB00E600F200FE000A0157
:100F90001701230130013E014B0159016701750121
:100FA00084019301A201B101C101D101E101F1016B
:100FB0000202120223023502460258026A027C0231
:100FC0008E02A002B302C602D902ED02000314038E
:100FD00028033C035003650379038E03A303B8037E
:100FE000CD03E303F9030E0424043A045104670417
:100FF0007D049404AB04C204D904F00407051F0562
:1010000036054E0565057D059505AD05C505DD056E
:10101000F6050E0626063F06570670068906A10647
:10102000BA06D306EC0605071E07370750076907FF
:1010300082079B07B407CD07E6075D0D11241FBE8D
:10104000CFEFD8E0DEBFCDBF11E0A0E0B1E0E6E336
:10105000F4E202C005900D92A830B107D9F721E063
:10106000A8E0B1E001C01D92AA34B207E1F718E090
:10107000CEE1D8E004C02197FE010E941312CD31C9
:10108000D107C9F70E94AD0B0C9419120C94000003
:1010900090E0FC01EA5DFE4F2491FC01EE5EFE4F04
:1010A0003491FC01E250FF4FE491EE23C9F022237A
:1010B00039F0233001F1A8F4213019F1223029F15F
:1010C000F0E0EE0FFF1FEC50FF4FA591B4918FB7EA
:1010D000F894EC91611126C030953E233C938FBF6C
:1010E00008952730A9F02830C9F0243049F78091BD
:1010F00080008F7D03C0809180008F778093800077
:10110000DFCF84B58F7784BDDBCF84B58F7DFBCFF8
:101110008091B0008F778093B000D2CF8091B000E3
:101120008F7DF9CF3E2BDACFCF93DF9390E0FC0198
:10113000EE5EFE4F249182509F4FFC0184918823E4
:10114000C9F090E0880F991FFC01E651FF4FA5916F
:10115000B491FC01EC50FF4FC591D49161110DC0C9
:101160009FB7F8948C91209582238C9388812823B3
:1011700028839FBFDF91CF910895623051F49FB7CC
:10118000F8943C91822F809583238C93E8812E2BB9
:10119000EFCF8FB7F894EC912E2B2C938FBFEACF23
:1011A0008E50806480937C0080917A00806480936C
:1011B0007A0080917A0086FDFCCF80917800909132
:1011C00079000895000000000000000082309105C1
:1011D00058F09C0127503109880F991F880F991FDB
:1011E000820F931F0197F1F708959FB7F8944091EC
:1011F000260150912701609128017091290186B53F
:10120000A89B06C08F3F21F04F5F5F4F6F4F7F4F0E
:101210009FBF2227342F452F562F280F311D411DE8
:10122000511DA3E0B0E00E94050E089508959CB5FD
:101230009C7F282F2370922B9CBD9DB582FB22277B
:1012400020F9892F8E7F822B8DBD08955F9A5E983D
:1012500084E090E0909305018093040180E891E0A0
:10126000909307018093060108955E9A599883E050
:1012700090E0909305018093040180E092E09093C8
:101280000701809306010895599A589882E090E0EA
:10129000909305018093040180E092E09093070110
:1012A000809306010895589A5F9881E090E09093AA
:1012B00005018093040180E092E090930701809300
:1012C000060108950F931F930E94F50800911801DD
:1012D0001091190120911A0130911B01601B710BB3
:1012E000820B930B683D784B8540910538F161E0A6
:1012F00089E00E94480880E492E40E94E20880911C
:10130000160190911701892BE1F4289A81E090E071
:10131000909317018093160180E492E40E94E20802
:1013200060E089E00E9448080E94F5086093180177
:101330007093190180931A0190931B011F910F91D3
:10134000089528981092170110921601E5CF0F9377
:101350001F930E94F50800911C0110911D0120911E
:101360001E0130911F01601B710B820B930B6833C0
:10137000724384409105E0F080912A0190912B0105
:101380000196853091050CF590932B0180932A01ED
:1013900060912A0181E090E00E94D80D0E94F5083A
:1013A00060931C0170931D0180931E0190931F0197
:1013B00080912A0190912B0182309105B1F044F483
:1013C000019779F01F910F91089581E090E0DCCFB3
:1013D0008330910571F00497A9F71F910F910C9438
:1013E00026091F910F910C9453091F910F910C9492
:1013F00044091F910F910C9435091F920F920FB65B
:101400000F9211242F933F938F939F93AF93BF938A
:101410008091220190912301A0912401B091250196
:101420003091210126E6230F2D3728F029EE230FD6
:101430000196A11DB11D209321018093220190935B
:101440002301A0932401B09325018091260190915E
:101450002701A0912801B09129010196A11DB11D7C
:101460008093260190932701A0932801B09329012E
:10147000BF91AF919F918F913F912F910F900FBE90
:101480000F901F9018951F920F920FB60F92112474
:101490002F933F934F935F936F937F938F939F937C
:1014A000AF93BF93EF93FF93E0910201F09103019B
:1014B0000995FF91EF91BF91AF919F918F917F918E
:1014C0006F915F914F913F912F910F900FBE0F90B1
:1014D0001F9018951F920F920FB60F9211242F9301
:1014E0003F934F935F936F937F938F939F93AF93AC
:1014F000BF93EF93FF93E0910001F09101010995F3
:10150000FF91EF91BF91AF919F918F917F916F91DB
:101510005F914F913F912F910F900FBE0F901F90B1
:1015200018951F920F920FB60F9211244F925F924F
:101530006F927F928F929F92AF92BF92CF92DF92E3
:10154000EF92FF922F933F934F935F936F937F930D
:101550008F939F93AF93BF93CF93DF93EF93FF93BB
:101560008FE00E94D0089C01ACE9BFEF0E940412FA
:101570002FEF33E040E050E00E94E60DCA01B901D0
:101580006C597F4F8F4F9F4F0E945D0F20E030E0DE
:1015900048EC52E40E94B30E60933A0170933B0111
:1015A00080933C0190933D018EE00E94D008BC01E5
:1015B000990F880B990B0E945D0F6B017C0120E055
:1015C00030E0A9010E94AE0E87FDC3C020E030ECE0
:1015D0004FE754E4C701B6010E940D1018163CF401
:1015E000C12C30ECD32E3FE7E32E34E4F32E20E081
:1015F00030EC4FE754E4C701B6010E94B30E2FEB65
:1016000032EC40E250E40E947F1020E030E84DEEE2
:1016100054E40E94121020E030E048EC52E40E94B2
:10162000420E0E94250F6B01709315016093140107
:1016300080E10E94D008EC01BC01990F880B990B46
:101640000E945D0F6093100170931101809312014D
:101650009093130124E630E0DE010E940C128824EE
:101660008A9423E0922EA12CB12CA50194010E9412
:10167000E60DCA01B9010E945D0F20E030E048ECA0
:1016800052E40E94B30E2B013C0140920C01509297
:101690000D0160920E0170920F01B601DD0C880BF6
:1016A000990B0E945D0F6B017C01AC019B01C30192
:1016B000B2010E941210609344017093450180931F
:1016C0004601909347019E01ACE9BFEF0E940412CE
:1016D000A50194010E94E60DCA01B9016C597F4F22
:1016E0008F4F9F4F0E945D0F20E030E048EC52E4A6
:1016F0000E94B30EA70196010E94121060933E0152
:1017000070933F01809340019093410182E8809360
:10171000B20017BAFF91EF91DF91CF91BF91AF91D6
:101720009F918F917F916F915F914F913F912F91F9
:10173000FF90EF90DF90CF90BF90AF909F908F90F1
:101740007F906F905F904F900F900FBE0F901F9003
:101750001895C12CD12C76014ACF789484B582603B
:1017600084BD84B5816084BD85B5826085BD85B545
:10177000816085BD80916E00816080936E001092C3
:10178000810080918100826080938100809181003E
:1017900081608093810080918000816080938000CF
:1017A0008091B10084608093B1008091B00081602D
:1017B0008093B00080917A00846080937A00809159
:1017C0007A00826080937A0080917A0081608093B1
:1017D0007A0080917A00806880937A001092C1002C
:1017E00081E090E090933601809335010E941709C3
:1017F000C1E0C093340161E080E00E94940861E0A0
:1018000081E00E94940861E086E00E94940861E013
:1018100087E00E94940861E088E00E94940861E0FB
:1018200089E00E94940860E08EE00E94940860E0E5
:101830008FE00E94940860E080E10E94940862E0DA
:1018400082E00E94940887EA99E0909301018093D6
:101850000001809169008C7F826080936900E89A22
:1018600062E083E00E94940882E699E0909303018D
:101870008093020180916900837F88608093690072
:10188000E99A1092B10082E88093B20017BAC0932F
:1018900070001092B00085E08093B10060E089E0B4
:1018A0000E94480881E090E00E94D00D282F30E08F
:1018B00030932B0120932A01823009F4BEC008F036
:1018C000B1C0813009F4B6C0DD24D3940CE010E03F
:1018D000C0E0EC2EC0E0FC2E20914801309149017F
:1018E0002F5F3F4F309349012093480180910601BB
:1018F000909107012817390724F01092490110929E
:101900004801C0914801D091490197FD01969595F4
:1019100087958C179D070CF496C0609144017091D7
:10192000450180914601909147010E94250F7093D7
:10193000430160934201809104019091050181303F
:10194000910509F089C0FE01EE0FFF1FE65CF34F21
:101950006591749190E080E00E945B0F20913A01C4
:1019600030913B0140913C0150913D010E94121089
:101970000E942C0F709339016093380180914201CD
:10198000909143010E94E208C0913801D091390141
:1019900080913001909131018C30910509F077C030
:1019A000DF7080913401882309F47BC02A988091EC
:1019B00033018D2590E0982F88279295990F907E7E
:1019C0002091320130E030E4239F302D2227112472
:1019D000822B932B90612091300130913101A8012D
:1019E000421B530B02C0CC0FDD1F4A95E2F78C2B34
:1019F0009D2B9EBD00000DB407FEFDCF9EB58EBD94
:101A000000000DB407FEFDCF8EB580913401882310
:101A100009F44DC02A9AE114F10409F45DCF0E9443
:101A200000005ACF833061F0843009F04DCF0E941E
:101A300026094ACF0E94530947CF0E94440944CF48
:101A40000E94350941CF60913E0170913F01809124
:101A500040019091410169CF8230910531F4FE013E
:101A6000EE0FFF1FE65CF74F73CF8330910531F423
:101A7000FE01EE0FFF1FE65CFB4F6ACF049709F0F3
:101A80007DCFFE01EE0FFF1FE65CFE4F61CF8A3077
:101A9000910511F4D37085CF089709F082CFDD2727
:101AA00080CF60E080912C010E94480880CF61E0E7
:101AB00080912C010E944808AECFCF931092320142
:101AC000109233011092340184E090E0909336013B
:101AD0008093350181E0809337018AE090E0909314
:101AE0002D0180932C018FEF9FEF90932F01809316
:101AF0002E018CE090E0909331018093300161E001
:101B00008AE00E94940861E080912E010E9494086E
:101B100061E080912C010E94480861E080912E01D3
:101B20000E944808CFB7F89480912001811127C006
:101B3000E8E0F1E08491ECE1F1E09491E82FF0E04D
:101B4000EE0FFF1FE651FF4FA591B491EC91E923F1
:101B500021F461E08AE00E94480861E08AE00E9486
:101B600094088CB580618CBD8CB580648CBD61E0BF
:101B70008DE00E94940861E08BE00E9494088091BF
:101B800020018F5F80932001CFBF8CB58F7D8CBDEE
:101B90008CB5837F8CBD80913501CF910C94170952
:101BA000F999FECF92BD81BDF89A992780B5089525
:101BB000262FF999FECF1FBA92BD81BD20BD0FB669
:101BC000F894FA9AF99A0FBE01960895052E97FB9C
:101BD0001EF400940E94FD0D57FD07D00E94100EC8
:101BE00007FC03D04EF40C94FD0D509540953095B4
:101BF00021953F4F4F4F5F4F089590958095709579
:101C000061957F4F8F4F9F4F08950E94320EA59F81
:101C1000900DB49F900DA49F800D911D11240895E7
:101C2000A1E21A2EAA1BBB1BFD010DC0AA1FBB1FE0
:101C3000EE1FFF1FA217B307E407F50720F0A21B52
:101C4000B30BE40BF50B661F771F881F991F1A94BF
:101C500069F760957095809590959B01AC01BD01E9
:101C6000CF010895A29FB001B39FC001A39F700D43
:101C7000811D1124911DB29F700D811D1124911D94
:101C800008955058BB27AA270E94590E0C94D30FD1
:101C90000E94C50F38F00E94CC0F20F039F49F3F0E
:101CA00019F426F40C94C20F0EF4E095E7FB0C94A3
:101CB000BC0FE92F0E94E40F58F3BA1762077307AD
:101CC0008407950720F079F4A6F50C9406100EF41D
:101CD000E0950B2EBA2FA02D0B01B90190010C013C
:101CE000CA01A0011124FF27591B99F0593F50F454
:101CF000503E68F11A16F040A22F232F342F4427AC
:101D0000585FF3CF469537952795A795F0405395A3
:101D1000C9F77EF41F16BA0B620B730B840BBAF073
:101D20009150A1F0FF0FBB1F661F771F881FC2F7DE
:101D30000EC0BA0F621F731F841F48F487957795F2
:101D40006795B795F7959E3F08F0B0CF9395880FAC
:101D500008F09927EE0F9795879508950E94980FA0
:101D600008F481E008950E94C70E0C94D30F0E94DE
:101D7000CC0F58F00E94C50F40F029F45F3F29F0C6
:101D80000C94BC0F51110C9407100C94C20F0E94BC
:101D9000E40F68F39923B1F3552391F3951B550B89
:101DA000BB27AA2762177307840738F09F5F5F4F2E
:101DB000220F331F441FAA1FA9F335D00E2E3AF06D
:101DC000E0E832D091505040E695001CCAF72BD085
:101DD000FE2F29D0660F771F881FBB1F26173707D6
:101DE0004807AB07B0E809F0BB0B802DBF01FF2708
:101DF00093585F4F3AF09E3F510578F00C94BC0F1A
:101E00000C9407105F3FE4F3983ED4F386957795E2
:101E10006795B795F7959F5FC9F7880F911D9695C0
:101E2000879597F90895E1E0660F771F881FBB1F1C
:101E3000621773078407BA0720F0621B730B840BC9
:101E4000BA0BEE1F88F7E09508950E942C0F689456
:101E5000B1110C94071008950E94EC0F88F09F5761
:101E600098F0B92F9927B751B0F0E1F0660F771FBE
:101E7000881F991F1AF0BA95C9F714C0B13091F0B4
:101E80000E940610B1E008950C940610672F782F79
:101E90008827B85F39F0B93FCCF386957795679579
:101EA000B395D9F73EF490958095709561957F4FE5
:101EB0008F4F9F4F0895E89409C097FB3EF490958B
:101EC0008095709561957F4F8F4F9F4F9923A9F013
:101ED000F92F96E9BB279395F695879577956795A2
:101EE000B795F111F8CFFAF4BB0F11F460FF1BC0E6
:101EF0006F5F7F4F8F4F9F4F16C0882311F096E979
:101F000011C0772321F09EE8872F762F05C0662326
:101F100071F096E8862F70E060E02AF09A95660FDF
:101F2000771F881FDAF7880F9695879597F9089598
:101F3000990F0008550FAA0BE0E8FEEF16161706DA
:101F4000E807F907C0F012161306E407F50798F042
:101F5000621B730B840B950B39F40A2661F0232B5B
:101F6000242B252B21F408950A2609F4A140A695D7
:101F70008FEF811D811D089597F99F6780E870E0BC
:101F800060E008959FEF80EC089500240A941616EF
:101F9000170618060906089500240A941216130657
:101FA000140605060895092E0394000C11F48823E5
:101FB00052F0BB0F40F4BF2B11F460FF04C06F5F01
:101FC0007F4F8F4F9F4F089557FD9058440F551FD7
:101FD00059F05F3F71F04795880F97FB991F61F0AB
:101FE0009F3F79F087950895121613061406551F22
:101FF000F2CF4695F1DF08C0161617061806991F8E
:10200000F1CF86957105610508940895E894BB2782
:1020100066277727CB0197F908950E94980F08F457
:102020008FEF08950E9425100C94D30F0E94C50FC6
:1020300038F00E94CC0F20F0952311F00C94BC0FC7
:102040000C94C20F11240C9407100E94E40F70F33B
:10205000959FC1F3950F50E0551F629FF001729F4D
:10206000BB27F00DB11D639FAA27F00DB11DAA1F5C
:10207000649F6627B00DA11D661F829F2227B00DA9
:10208000A11D621F739FB00DA11D621F839FA00D34
:10209000611D221F749F3327A00D611D231F849F84
:1020A000600D211D822F762F6A2F11249F575040DB
:1020B0009AF0F1F088234AF0EE0FFF1FBB1F661F56
:1020C000771F881F91505040A9F79E3F510580F01F
:1020D0000C94BC0F0C9407105F3FE4F3983ED4F3CC
:1020E000869577956795B795F795E7959F5FC1F7C3
:1020F000FE2B880F911D9695879597F90895FA0103
:10210000EE0FFF1F309621053105A1F16115710514
:1021100061F48038BFE39B0749F1689490388105EA
:1021200061F08038BFEF9B0741F099234AF5FF3FEC
:10213000E1053105210519F1E8940894E795D901E5
:10214000AA2329F4AB2FBE2FF85FD0F310C0FF5F96
:1021500070F4A695E0F7F73950F019F0FF3A38F42B
:102160009F779F930DD00F9007FC9058089546F0ED
:102170000C94C20F60E070E080E89FE308954FE7A1
:102180009F775F934F933F932F930E947A112F91E4
:102190003F914F915F910E9412100C94D71029F437
:1021A00016F00C94BC0F0C9406100C94C20F0E94F5
:1021B000EC0FA8F39638A0F707F80F92E8942BE3FA
:1021C0003AEA48EB5FE70E9428100F920F920F92B5
:1021D0004DB75EB70F920E94C211E8E6F0E00E9490
:1021E00009114F915F91EF91FF91E595EE1FFF1F50
:1021F00049F0FE57E0684427EE0F441FFA95E1F7D7
:102200004195550B0E943C110F9007FE0C94301124
:102210000895DF93CF931F930F93FF92EF92DF9276
:102220007B018C01689406C0DA2EEF010E94251014
:10223000FE01E894A5912591359145915591A6F31C
:10224000EF010E94590EFE019701A801DA9469F787
:10225000DF90EF90FF900F911F91CF91DF91089544
:102260009B01AC0160E070E080E89FE30C94B30E4A
:102270000C94BC0F0C94F6110E94EC0FD8F3992328
:10228000C9F3940F511DA3F39150504094F059F0AD
:10229000882332F0660F771F881F91505040C1F796
:1022A0009E3F51052CF7880F911D9695879597F9BC
:1022B00008955F3FACF0983E9CF0BB2786957795DC
:1022C0006795B79508F4B1609395C1F7BB0F58F7C0
:1022D00011F460FFE8CF6F5F7F4F8F4F9F4FE3CFC9
:1022E0000C94071016F00C94F6110C94C20F68941D
:1022F0000C94BC0F0E94EC0FA8F39923C1F3AEF32A
:10230000DF93CF931F930F93FF92C92FDD2788236D
:102310002AF02197660F771F881FDAF720E030E058
:1023200040E85FEB9FE3883920F0803E38F021964B
:102330008F770E94420EE0E9F0E004C00E94420E56
:10234000EDEBF0E00E9409118B01BE01EC01FB2EC8
:102350006F5771097595771F880B990B0E945D0F58
:1023600028E132E741E35FE30E942510AF2D980199
:10237000AE01FF900F911F91CF91DF910E94590EF6
:102380000C94D30FFA01DC01AA0FBB1F9B01AC0117
:10239000BF5728F4222733274427507820C0B7514D
:1023A00090F4AB2F0024469537952795011CA395F3
:1023B000D2F3002071F0220F331F441FB395DAF3DC
:1023C0000ED00C94410E61307105A0E88A07B94621
:1023D00030F49B01AC0166277727882790783096E8
:1023E00021F0208331834283538308959F3F31F04E
:1023F000915020F4879577956795B795880F911D33
:102400009695879597F908950E94320E332312F41A
:102410008A1B9B0B0C940E120E94320EB7FF08957C
:10242000821B930B0895EE0FFF1F0590F491E02D92
:062430000994F894FFCFAF
:0824360016091609010000025D
:00000001FF
