:100000000C9463010C94E3060C940A070C948B0186
:100010000C948B010C948B010C948B010C948B0130
:100020000C948B010C948B010C948B010C948B0120
:100030000C948B010C948B010C948B010C948B0110
:100040000C9431070C948B010C948B010C948B0154
:100050000C948B010C948B010C948B010C948B01F0
:100060000C944E050C948B01FF0FFF0FFF0FFF0F39
:10007000FF0FFF0FFF0FFF0FFF0FFF0FFF0FFF0F10
:10008000FF0FFF0FFF0FFF0FFF0FFF0FFF0FFF0F00
:10009000FF0FFF0FFF0FFF0FFF0FFF0FFF0FFF0FF0
:1000A000FF0FFF0FFF0FFF0F000000000000000018
:1000B0000000000000000000000000000000000040
:1000C0000000000000000000000000000000000030
:1000D0000000000000000000000000000000000020
:1000E0000000000000000000FF0FFF0FFF0FFF0FD8
:1000F000FF0FFF0FFF0FFF0FFF0FFF0FFF0FFF0F90
:10010000FF0FFF0FFF0FFF0FFF0FFF0FFF0FFF0F7F
:10011000FF0FFF0FFF0FFF0FFF0FFF0FFF0FFF0F6F
:10012000FF0FFF0FFF0FFF0F000000000000000097
:1001300000000000000000000000000000000000BF
:1001400000000000000000000000000000000000AF
:10015000000000000000000000000000000000009F
:1001600000000000000000000008C8088F09520AC3
:100170000F0BC50B710C120DA70D2E0EA60E0D0F39
:10018000630FA70FD80FF50FFF0FF50FD80FA70FAD
:10019000630F0D0FA60E2E0EA70D120D710CC50BC1
:1001A0000F0B520A8F09C808000837077006AD0503
:1001B000F0043A048E03ED025802D1015901F20015
:1001C0009C00580027000A0000000A002700580081
:1001D0009C00F2005901D1015802ED028E033A044D
:1001E000F004AD05700637070008C8088F09520AE9
:1001F0000F0BC50B710C120DA70D2E0EA60E0D0FB9
:10020000630FA70FD80FF50FFF0FF50FD80FA70F2C
:10021000630F0D0FA60E2E0EA70D120D710CC50B40
:100220000F0B520A8F09C808000837077006AD0582
:10023000F0043A048E03ED025802D1015901F20094
:100240009C00580027000A0000000A002700580000
:100250009C00F2005901D1015802ED028E033A04CC
:10026000F004AD0570063707000000090003020026
:10027000000405080000000000000000000000016C
:10028000020408102040800102040810200102042A
:100290000810204080400404040404040404020202
:1002A000020202020303030303030202030000002D
:1002B00000250028002B0000000000240027002A51
:1002C0000000E403AD0411241FBECFEFD8E0DEBF71
:1002D000CDBF11E0A0E0B1E0ECE2F7E102C0059093
:1002E0000D92AE31B107D9F722E0AEE1B1E001C025
:1002F0001D92AA30B207E1F711E0C3E6D1E004C0D5
:100300002197FE010E947F0BC136D107C9F70E94D9
:10031000DC080C94940B0C940000CF92DF92EF92C7
:10032000FF920E947B07C0903C01D0903D01E0907D
:100330003E01F0903F019B01AC012C193D094E0993
:100340005F0969017A012091040130910501409112
:10035000060150910701A8EEB3E00E94600BC6169B
:10036000D706E806F906ECF0809128019091290162
:10037000892B41F4289A81E090E0909329018093A1
:10038000280105C0289810922901109228010E9486
:100390007B0760933C0170933D0180933E019093F5
:1003A0003F01FF90EF90DF90CF9008954F925F92C2
:1003B0006F927F92AF92BF92CF92DF92EF92FF92B5
:1003C0000F931F9380E10E94E40790931F01809395
:1003D0001E018F3F21E092077CF08E5F914064E622
:1003E00070E00E940B0B7093330160933201109206
:1003F00031011092300112C02EEF31E0A901481BEB
:10040000590BCA0164E670E00E940B0B7093310136
:100410006093300110923301109232018EE00E94FD
:10042000E407BC01990F880B990B0E94020A6093A4
:100430002A0170932B0180932C0190932D018FE062
:100440000E94E4072C01990F66087708C301B201E6
:100450000E94020A60932401709325018093260173
:10046000909327011F921F921F9284E68F93A12CD5
:10047000B12C6501EE24EA9413E0F12E00E010E0C7
:1004800020E030E0A901C301B2010E949A080E9455
:10049000020A20E030E048EC52E40E9458096093E0
:1004A00020017093210180932201909323010F90EA
:1004B0000F900F900F901F910F91FF90EF90DF9092
:1004C000CF90BF90AF907F906F905F904F900895C6
:1004D00080913601909137010196803491052CF47A
:1004E000909337018093360106C010923701109225
:1004F00036010E94D6018091360190913701809794
:10050000ACF46091320170913301072E000C880B1E
:10051000990B0E94020A20912A0130912B014091EF
:100520002C0150912D010E94EC0816C06091300101
:1005300070913101072E000C880B990B0E94020A62
:100540009B01AC0160912A0170912B0180912C01DB
:1005500090912D010E94EB080E94CA097093350109
:1005600060933401809134019091350124E1AC0114
:10057000249FC001259F900D11240E94A007809107
:100580000001909101018130910549F4E09136011B
:10059000F0913701EE0FFF1FE851FE4F22C082306D
:1005A000910549F4E0913601F0913701EE0FFF1FFC
:1005B000E859FE4F16C08330910549F4E0913601A9
:1005C000F0913701EE0FFF1FE851FF4F0AC004976B
:1005D000F1F4E0913601F0913701EE0FFF1FE85979
:1005E000FF4F6591749180E090E00E94000A209195
:1005F00020013091210140912201509123010E945C
:100600008E0A0E94D10970932F0160932E01609190
:100610002E0170912F0140E080E491E00C9482065D
:10062000589A5F9881E090E09093010180930001D7
:10063000089562E680E491E00E947C0661E080E03B
:100640000E942E0861E081E00E942E0861E086E0B1
:100650000E942E0861E087E00E942E0861E088E099
:100660000E942E0860E08EE00E942E0860E08FE07D
:100670000E942E0860E080E10E942E0862E083E084
:100680000E942E0840E050E06DE871E081E00E9499
:10069000C30662E082E00E942E0840E050E069E775
:1006A00073E080E00E94C306EAE7F0E08081887F83
:1006B00080838081836080830C941003599A5898BA
:1006C00082E090E0909301018093000108955E9A8A
:1006D000599883E090E09093010180930001089580
:1006E0005F9A5E9884E090E090930101809300010E
:1006F0000895CF92DF92EF92FF920E947B07C09005
:100700003801D0903901E0903A01F0903B019B0113
:10071000AC012C193D094E095F0969017A0120914C
:100720000401309105014091060150910701A8EEA6
:10073000B3E00E94600BC616D706E806F906C4F0BF
:10074000809102019091030101968530910514F08A
:1007500081E090E090930301809302010E947B0767
:10076000609338017093390180933A0190933B0173
:10077000809102019091030182309105A1F044F42F
:100780000197E9F4FF90EF90DF90CF900C94100365
:100790008330910571F0049791F4FF90EF90DF9012
:1007A000CF900C947003FF90EF90DF90CF900C945B
:1007B0005E03FF90EF90DF90CF900C946703FF9063
:1007C000EF90DF90CF90089580E491E00C947B0649
:1007D0008091710190E020917201821B910908952E
:1007E0009091720180917101981750F4E92FF0E017
:1007F000ED58FE4F208130E09F5F9093720102C060
:100800002FEF3FEFC9010895E091720180917101CE
:10081000E81730F4F0E0ED58FE4F808190E0089545
:100820008FEF9FEF08950895CF92DF92EF92FF929E
:100830000F931F93CF93DF937C01262F972F8A016D
:1008400080914D01882391F0C62FD72F6E01C40EE1
:10085000D51ECC15DD0571F06991D701ED91FC91A4
:100860000190F081E02DC7010995F3CF642F822F0D
:100870000E942505C801DF91CF911F910F91FF9034
:10088000EF90DF90CF900895CF93DF931F92CDB775
:10089000DEB7698320914D012223D1F020914E01D2
:1008A000203240F021E030E0FC013383228380E0FD
:1008B00090E015C080914F01E82FF0E0E05BFE4F23
:1008C000998190838F5F80934F0180934E0105C083
:1008D00061E0CE0101960E94250581E090E00F9035
:1008E000DF91CF910895FC011382128288EE93E08C
:1008F000A0E0B0E084839583A683B78381E191E093
:100900009183808308951092720110927101109268
:100910004F0110924E010C94B10481E080934D017F
:100920006093700110924F0110924E0108950F9341
:10093000062F21E040914E0160E571E08091700149
:100940000E94CF0410924F0110924E0110924D015F
:100950000F91089561E00C94970481E491E00C9468
:1009600073041092000281E08093FE011092FD0159
:1009700061E082E10E946A0861E083E10E946A0806
:10098000E9EBF0E080818E7F808380818D7F8083A2
:1009900080E28093B80085E48093BC0008950F93B3
:1009A000413208F04AC0909100029111FCCF32E030
:1009B000309300020093FE013FEF309393011092B9
:1009C000D8014093D701FB0169ED71E0DB013A2FBB
:1009D000361B341718F431913D93F9CF1092FF0173
:1009E0003091FF01880F832B8093FF018091FD01DF
:1009F000813061F41092FD018091FF018093BB0072
:100A00008091BC0083FDF8CF85EC01C085EE80931A
:100A1000BC00222321F0809100028230D1F380912A
:100A200093018F3F79F080919301803241F0809162
:100A30009301803331F094E005C091E003C092E06F
:100A400001C093E0892F0F910895613298F42091AD
:100A50000002243089F46093B501FC0127EB31E0FA
:100A6000D9018A2F821B861718F481918D93F9CFB3
:100A700080E0089581E0089582E0089585ED8093F7
:100A8000BC008091BC0084FDFCCF10920002089550
:100A900085EC8093BC001092000208951F920F9283
:100AA0000FB60F9211242F933F934F935F936F9341
:100AB0007F938F939F93AF93BF93EF93FF93809117
:100AC000B900887F803609F49EC078F5883209F431
:100AD0005DC090F4803109F456C038F4882309F4DD
:100AE000F5C0883009F44FC0F5C0883109F44EC014
:100AF000803209F45FC0EEC0803409F46AC058F453
:100B0000803309F457C0883309F0E4C0809393011F
:100B10000E944805DFC0803509F44FC0883509F4CC
:100B20005DC0883409F0D6C0D3C0883909F4C4C088
:100B3000A8F4883709F467C038F4883609F463C02C
:100B4000803709F460C0C6C0883809F4B5C0803960
:100B500009F45FC0803809F0BDC05BC0803B09F478
:100B600083C038F4803A09F466C0883A09F47CC03E
:100B7000B1C0803C09F4A4C0883C09F4A1C0883B02
:100B800009F487C0A7C08091FF0110C09091D801DF
:100B90008091D701981770F5E091D80181E08E0F10
:100BA0008093D801F0E0E752FE4F80818093BB0034
:100BB00085EC83C0809393018BC0E091D80181E0E4
:100BC0008E0F8093D8018091BB00F0E0E752FE4F7A
:100BD00080839091D8018091D7016BC0E091D801BA
:100BE00081E08E0F8093D8018091BB00F0E0E75246
:100BF000FE4F80838091FE0181116AC081E0809365
:100C0000FD0184EA5EC083E08093000210929401AB
:100C1000CFCF80919401803208F04EC0E0919401D2
:100C200081E08E0F809394018091BB00F0E0EB5641
:100C3000FE4F8083BDCF0E94480580919401803291
:100C400030F4E0919401F0E0EB56FE4F1082609199
:100C5000940170E0E091F901F091FA0185E991E0E9
:100C600009951092940136C084E08093000210929E
:100C7000B6011092B501E091FB01F091FC010995DC
:100C80008091B501811105C081E08093B50110927A
:100C9000B701E091B60181E08E0F8093B601F0E0DC
:100CA000E954FE4F80818093BB009091B601809102
:100CB000B501981708F47CCF85E88093BC000AC082
:100CC00085EC8093BC001092000204C01092930146
:100CD0000E943E05FF91EF91BF91AF919F918F913F
:100CE0007F916F915F914F913F912F910F900FBE28
:100CF0000F901F9018950895FC01608381E491E0A6
:100D00000C948304EF92FF921F93CF93DF931F9273
:100D1000CDB7DEB77B011091B80022E02093B80078
:100D2000FC01608181E491E049830E948D04498146
:100D3000442311F060E601C060E481E491E00E9488
:100D40004404B70184E0769567958A95E1F781E4DC
:100D500091E00E944404B70194E0660F771F9A95D2
:100D6000E1F781E491E00E94440481E491E00E9473
:100D7000AA041093B8000F90DF91CF911F91FF90BC
:100D8000EF90089508958230E8F4E82FF0E0EE0F38
:100D9000FF1FE85FFE4F71836083813041F08091D7
:100DA00069008C7F482B40936900E89A08958091F0
:100DB0006900440F551F440F551F837F482B4093F4
:100DC0006900E99A08951F920F920FB60F921124AD
:100DD0002F933F934F935F936F937F938F939F9343
:100DE000AF93BF93EF93FF93E0910801F091090156
:100DF0000995FF91EF91BF91AF919F918F917F9155
:100E00006F915F914F913F912F910F900FBE0F9077
:100E10001F9018951F920F920FB60F9211242F93C7
:100E20003F934F935F936F937F938F939F93AF9372
:100E3000BF93EF93FF93E0910A01F0910B010995A5
:100E4000FF91EF91BF91AF919F918F917F916F91A2
:100E50005F914F913F912F910F900FBE0F901F9078
:100E600018951F920F920FB60F9211242F933F9354
:100E70008F939F93AF93BF9380910202909103024F
:100E8000A0910402B09105023091010226E0230FE7
:100E90002D3720F40296A11DB11D05C029E8230FAE
:100EA0000396A11DB11D209301028093020290932D
:100EB0000302A0930402B093050280910602909170
:100EC0000702A0910802B09109020196A11DB11D6F
:100ED0008093060290930702A0930802B093090240
:100EE000BF91AF919F918F913F912F910F900FBE26
:100EF0000F901F9018953FB7F8948091060290913B
:100F00000702A0910802B091090226B5A89B05C06E
:100F10002F3F19F00196A11DB11D3FBFBA2FA92F78
:100F2000982F8827820F911DA11DB11DBC01CD01F5
:100F300043E0660F771F881F991F4A95D1F70895E0
:100F40008330910528F0880F991F04970197F1F7D6
:100F50000895789484B5826084BD84B5816084BD31
:100F600085B5826085BD85B5816085BDEEE6F0E022
:100F7000808181608083E1E8F0E01082808182607E
:100F80008083808181608083E0E8F0E080818160FF
:100F90008083E1EBF0E0808184608083E0EBF0E02F
:100FA000808181608083EAE7F0E0808184608083D3
:100FB00080818260808380818E7F80838081806851
:100FC00080831092C1000895883028F08E3010F090
:100FD0008E5001C08FEF877020910C0190E4299F03
:100FE00090011124822B80937C0080917A00806490
:100FF00080937A0080917A0086FDFCCF8091780002
:101000002091790090E0922B0895843081F028F4AB
:10101000823099F08330A1F008958830A9F08930AA
:10102000B9F08530D1F4809180008F7D03C080912C
:1010300080008F7780938000089584B58F7702C0F9
:1010400084B58F7D84BD08958091B0008F7703C0F3
:101050008091B0008F7D8093B0000895CF93DF938F
:1010600090E0FC01E158FD4F2491FC01EA56FD4F50
:101070008491882361F190E0880F991FFC01E95465
:10108000FD4FC591D491FC01E355FD4FA591B4915D
:10109000611109C09FB7F8948881209582238883C5
:1010A000EC912E230BC0623061F49FB7F894388125
:1010B000822F809583238883EC912E2B2C939FBFC6
:1010C00006C08FB7F894E8812E2B28838FBFDF915D
:1010D000CF9108951F93CF93DF93282F30E0F9012C
:1010E000E859FD4F8491F901E158FD4FD491F90180
:1010F000EA56FD4FC491CC23C9F0162F81110E94EE
:101100000508EC2FF0E0EE0FFF1FE355FD4FA59112
:10111000B4918FB7F894111105C09C91ED2FE09513
:10112000E92302C0EC91ED2BEC938FBFDF91CF91BF
:101130001F9108954F925F926F927F92AF92BF92EC
:10114000CF92DF92EF92FF920F931F93CF93DF9393
:10115000CDB7DEB729013A019B01AC01241935094D
:101160004609570989899A89AB89BC89BC01CD0197
:101170006A197B098C099D090E94FB0AA801970145
:1011800024193509460957090E94410BCA01B901C2
:101190006A0D7B1D8C1D9D1DDF91CF911F910F91BD
:1011A000FF90EF90DF90CF90BF90AF907F906F90C7
:1011B0005F904F90089508950E94A9070E94DB0850
:1011C0000E941903C0E0D0E00E9468022097E1F37A
:1011D0000E940000F9CF5058BB27AA270E9403099C
:1011E0000C94540A0E94460A38F00E944D0A20F0DE
:1011F00039F49F3F19F426F40C94430A0EF4E09559
:10120000E7FB0C943D0AE92F0E94650A58F3BA17D0
:10121000620773078407950720F079F4A6F50C940C
:10122000870A0EF4E0950B2EBA2FA02D0B01B90101
:1012300090010C01CA01A0011124FF27591B99F04C
:10124000593F50F4503E68F11A16F040A22F232F58
:10125000342F4427585FF3CF469537952795A795A8
:10126000F0405395C9F77EF41F16BA0B620B730B4F
:10127000840BBAF09150A1F0FF0FBB1F661F771FC0
:10128000881FC2F70EC0BA0F621F731F841F48F475
:10129000879577956795B795F7959E3F08F0B0CFFE
:1012A0009395880F08F09927EE0F979587950895E5
:1012B0000E946C090C94540A0E944D0A58F00E9436
:1012C000460A40F029F45F3F29F00C943D0A511181
:1012D0000C94880A0C94430A0E94650A68F39923C7
:1012E000B1F3552391F3951B550BBB27AA27621722
:1012F0007307840738F09F5F5F4F220F331F441F2F
:10130000AA1FA9F335D00E2E3AF0E0E832D0915062
:101310005040E695001CCAF72BD0FE2F29D0660F4F
:10132000771F881FBB1F261737074807AB07B0E892
:1013300009F0BB0B802DBF01FF2793585F4F3AF098
:101340009E3F510578F00C943D0A0C94880A5F3F4B
:10135000E4F3983ED4F3869577956795B795F7951E
:101360009F5FC9F7880F911D9695879597F9089506
:10137000E1E0660F771F881FBB1F621773078407A2
:10138000BA0720F0621B730B840BBA0BEE1F88F7B1
:10139000E09508950E94D1096894B1110C94880ACF
:1013A00008950E946D0A88F09F5798F0B92F9927E9
:1013B000B751B0F0E1F0660F771F881F991F1AF040
:1013C000BA95C9F714C0B13091F00E94870AB1E014
:1013D00008950C94870A672F782F8827B85F39F013
:1013E000B93FCCF3869577956795B395D9F73EF4D9
:1013F00090958095709561957F4F8F4F9F4F089581
:10140000E89409C097FB3EF490958095709561959E
:101410007F4F8F4F9F4F9923A9F0F92F96E9BB2754
:101420009395F695879577956795B795F111F8CFD0
:10143000FAF4BB0F11F460FF1BC06F5F7F4F8F4F3B
:101440009F4F16C0882311F096E911C0772321F031
:101450009EE8872F762F05C0662371F096E8862FC9
:1014600070E060E02AF09A95660F771F881FDAF720
:10147000880F9695879597F9089597F99F6780E863
:1014800070E060E008959FEF80EC089500240A94D6
:101490001616170618060906089500240A9412164F
:1014A0001306140605060895092E0394000C11F482
:1014B000882352F0BB0F40F4BF2B11F460FF04C02F
:1014C0006F5F7F4F8F4F9F4F089557FD9058440F88
:1014D000551F59F05F3F71F04795880F97FB991F93
:1014E00061F09F3F79F08795089512161306140650
:1014F000551FF2CF4695F1DF08C0161617061806DD
:10150000991FF1CF86957105610508940895E894B7
:10151000BB2766277727CB0197F908950E94A10A78
:101520000C94540A0E94460A38F00E944D0A20F09A
:10153000952311F00C943D0A0C94430A11240C9449
:10154000880A0E94650A70F3959FC1F3950F50E0D9
:10155000551F629FF001729FBB27F00DB11D639F65
:10156000AA27F00DB11DAA1F649F6627B00DA11D0B
:10157000661F829F2227B00DA11D621F739FB00DB1
:10158000A11D621F839FA00D611D221F749F332721
:10159000A00D611D231F849F600D211D822F762FBA
:1015A0006A2F11249F5750409AF0F1F088234AF097
:1015B000EE0FFF1FBB1F661F771F881F9150504003
:1015C000A9F79E3F510580F00C943D0A0C94880ABF
:1015D0005F3FE4F3983ED4F3869577956795B7958A
:1015E000F795E7959F5FC1F7FE2B880F911D9695A4
:1015F000879597F90895DB018F939F930E94600B65
:10160000BF91AF91A29F800D911DA39F900DB29F9E
:10161000900D1124089597FB072E16F4009407D01F
:1016200077FD09D00E946B0B07FC05D03EF4909526
:1016300081959F4F0895709561957F4F0895A1E220
:101640001A2EAA1BBB1BFD010DC0AA1FBB1FEE1F3C
:10165000FF1FA217B307E407F50720F0A21BB30B87
:10166000E40BF50B661F771F881F991F1A9469F703
:1016700060957095809590959B01AC01BD01CF015F
:101680000895052E97FB1EF400940E94580B57FDF9
:1016900007D00E941F0B07FC03D04EF40C94580B8C
:1016A00050954095309521953F4F4F4F5F4F08958E
:1016B00090958095709561957F4F8F4F9F4F0895BE
:1016C0000E94850BA59F900DB49F900DA49F800D47
:1016D000911D11240895AA1BBB1B51E107C0AA1F2D
:1016E000BB1FA617B70710F0A61BB70B881F991FC3
:1016F0005A95A9F780959095BC01CD010895EE0FFC
:10170000FF1F0590F491E02D0994A29FB001B39FB3
:10171000C001A39F700D811D1124911DB29F700DFA
:0C172000811D1124911D0895F894FFCF45
:10172C00010001000F000000C206000001000000D3
:0E173C000044041404E803F003040413040042
:107E000001C0ACC0112484B7882349F0982F9A7020
:107E1000923029F081FF02C097EF94BFD7D085E060
:107E20008093810082E08093C00088E18093C1004C
:107E300086E08093C20089E18093C4008EE0B1D0D7
:107E4000259A84E028E13EEF91E03093850020936D
:107E5000840096BBB09BFECF1D9AA8958150A9F7D0
:107E6000C0E0D0E092D0813471F48FD0182F9FD031
:107E7000123811F482E005C0113811F486E001C017
:107E800083E07CD068C0823411F484E103C085347F
:107E900019F485E094D05FC0853541F476D0C82FC1
:107EA00074D0D0E0D82BCC0FDD1F54C0863521F420
:107EB00084E085D080E0E5CF843679F566D065D062
:107EC000D82E63D0F82E00E011E05FD0F801819346
:107ED0008F01DE12FACF6BD0F5E4FF1201C0FFCFA5
:107EE00040E050E063E0CE0139D07E0100E011E0D7
:107EF000F8014081818150E0582B61E0C7012ED00C
:107F0000F2E0EF0EF11C0E5F1F4FD012F1CF40E0F8
:107F100050E065E0CE0122D01EC0843771F435D028
:107F200034D0F82E32D043D08E01F80185918F01E4
:107F300025D0FA94F110F9CF0EC0853739F437D037
:107F40008EE11CD085E91AD084E19BCF813511F4F4
:107F500088E027D02CD080E111D084CFFC010A0129
:107F600067BFE895112407B600FCFDCF667029F0C5
:107F7000452B19F481E187BFE89508959091C000E1
:107F800095FFFCCF8093C60008958091C00087FFC5
:107F9000FCCF8091C00084FD01C0A8958091C600EF
:107FA0000895E0E6F0E098E1908380830895EDDFA6
:107FB000803219F088E0F5DFFFCF84E1DFCFCF9387
:107FC000C82FE3DFC150E9F7CF91F1CF282E80E031
:087FD000E8DFE0E0FF2709945F
:027FFE00020679
:0400000300007E007B
:00000001FF
