:100000000C9462010C947C050C94A3050C948A0159
:100010000C948A010C948A010C948A010C948A0134
:100020000C948A010C948A010C948A010C948A0124
:100030000C948A010C948A010C948A010C948A0114
:100040000C94CA050C948A010C948A010C948A01C0
:100050000C948A010C948A010C948A010C948A01F4
:100060000C948A010C948A01FF0DFF0BFF09000814
:100070000006000400020000000200040006000860
:10008000FF09FF0BFF0DFF0FFF0DFF0BFF0900081E
:100090000006000400020000000200040006000840
:1000A000FF09FF0BFF0DFF0FFF0FFF0FFF0FFF0FEC
:1000B000FF0FFF0FFF0FFF0FFF0FFF0FFF0FFF0FD0
:1000C000FF0FFF0FFF0FFF0FFF0FFF0FFF0FFF0FC0
:1000D000FF0FFF0FFF0FFF0FFF0FFF0FFF0FFF0FB0
:1000E000FF0FFF0FFF0F0000FF0FFF0FFF0FFF0FAE
:1000F000FF0FFF0FFF0FFF0FFF0FFF0FFF0FFF0F90
:10010000FF0FFF0FFF0FFF0FFF0FFF0FFF0FFF0F7F
:10011000FF0FFF0FFF0FFF0FFF0FFF0FFF0FFF0F6F
:10012000FF0FFF0FFF0FFF0F000000000000000097
:1001300000000000000000000000000000000000BF
:1001400000000000000000000000000000000000AF
:10015000000000000000000000000000000000009F
:1001600000000000000000000008C8088F09520AC3
:100170000F0BC50B710C120DA70D2E0EA60E0D0F39
:10018000630FA70FD80FF50FFF0FF50FD80FA70FAD
:10019000630F0D0FA60E2E0EA70D120D710CC50BC1
:1001A0000F0B520A8F09C808000837077006AD0503
:1001B000F0043A048E03ED025802D1015901F20015
:1001C0009C00580027000A0000000A002700580081
:1001D0009C00F2005901D1015802ED028E033A044D
:1001E000F004AD05700637070008C8088F09520AE9
:1001F0000F0BC50B710C120DA70D2E0EA60E0D0FB9
:10020000630FA70FD80FF50FFF0FF50FD80FA70F2C
:10021000630F0D0FA60E2E0EA70D120D710CC50B40
:100220000F0B520A8F09C808000837077006AD0582
:10023000F0043A048E03ED025802D1015901F20094
:100240009C00580027000A0000000A002700580000
:100250009C00F2005901D1015802ED028E033A04CC
:10026000F004AD0570063707000000090003020026
:10027000000405080000000000000000000000016C
:10028000020408102040800102040810200102042A
:100290000810204080400404040404040404020202
:1002A000020202020303030303030202030000002D
:1002B00000250028002B0000000000240027002A51
:1002C00000002E0411241FBECFEFD8E0DEBFCDBF4B
:1002D00011E0A0E0B1E0EAE8F3E102C005900D9280
:1002E000AE30B107D9F721E0AEE0B1E001C01D9218
:1002F000A635B207E1F711E0C2E6D1E004C02197CC
:10030000FE010E94AE09C136D107C9F70E947707E6
:100310000C94C3090C9400004F925F926F927F92ED
:10032000AF92BF92CF92DF92EF92FF920F931F9303
:10033000CF938FE00E947F062C01990F6608770803
:10034000C301B2010E943508609316017093170132
:1003500080931801909319011F921F921F92C4E677
:10036000CF93A12CB12C6501EE24EA9413E0F12E79
:1003700000E010E020E030E0A901C301B2010E94DA
:1003800035070E94350820E030E048EC52E40E9436
:100390008B07609312017093130180931401909363
:1003A00015018EE00E947F06909333018093320105
:1003B000BC0196E0660F771F9A95E1F7072E000CB7
:1003C000880B990B0E94350860932A0170932B01CA
:1003D00080932C0190932D0180E10E947F062C01D7
:1003E000990F66087708C301B2010E94350860932F
:1003F0000E0170930F0180931001909311011F92D1
:100400001F921F92CF9320E030E0A901C301B201F7
:100410000E9435070E94350820E030E048EC52E4A5
:100420000E948B072B013C016093220170932301F2
:10043000809324019093250180E290E0909329011C
:100440008093280190932701809326018DB79EB752
:1004500008960FB6F8949EBF0FBE8DBF20E030E027
:1004600040E054E460910E0170910F018091100101
:10047000909111010E9486076091320170913301C1
:100480001816ECF0072E000C880B990B0E9435080B
:100490006B017C01A30192010E94E50860931E019B
:1004A00070931F018093200190932101C0921A0143
:1004B000D0921B01E0921C01F0921D011AC0072E80
:1004C000000C880B990B0E94350860931E017093F5
:1004D0001F018093200190932101A30192010E94AA
:1004E000E50860931A0170931B0180931C0190939F
:1004F0001D01CF911F910F91FF90EF90DF90CF9052
:10050000BF90AF907F906F905F904F900895CF9382
:10051000DF938091360190913701019680349105E7
:100520002CF4909337018093360106C01092370166
:10053000109236010E948C01C0913601D091370192
:1005400080912801909129018C179D074CF06091B2
:100550001E0170911F01809120019091210108C01E
:1005600060911A0170911B0180911C0190911D01F5
:100570000E94FD0770932F0160932E01809100016E
:10058000909101018130910531F4FE01EE0FFF1FC2
:10059000E851FE4F19C08230910531F4FE01EE0F93
:1005A000FF1FE859FE4F10C08330910531F4FE0162
:1005B000EE0FFF1FE851FF4F07C00497D9F4FE016B
:1005C000EE0FFF1FE859FF4F6591749180E090E0B6
:1005D0000E943308209112013091130140911401BF
:1005E000509115010E94E5080E940408709335019E
:1005F0006093340180912E0190912F010E94390661
:10060000609134017091350180E491E0DF91CF91E8
:100610000C9457058091300190913101892B41F460
:10062000289A81E090E0909331018093300105C0D9
:10063000289810923101109230010E9414066093A4
:100640003C0170933D0180933E0190933F010895DA
:10065000CF92DF92EF92FF920E941406C0903C016D
:10066000D0903D01E0903E01F0903F019B01AC0134
:100670002C193D094E095F0969017A012091040195
:10068000309105014091060150910701AAE0B0E0C8
:100690000E948109C616D706E806F90634F0FF90D5
:1006A000EF90DF90CF900C940A03FF90EF90DF90D3
:1006B000CF900895589A5F9881E090E0909301015F
:1006C00080930001089561E070E080E491E00E9471
:1006D000D40461E080E491E00E94D10461E080E014
:1006E0000E94C90661E081E00E94C90661E086E0DF
:1006F0000E94C90661E087E00E94C90661E088E0C7
:100700000E94C90660E08EE00E94C90660E08FE0AA
:100710000E94C90660E080E10E94C90662E082E0B2
:100720000E94C90640E050E063EC73E080E00E9464
:100730005C0562E083E00E94C90640E050E068E2A8
:1007400073E081E00E945C050E945A030C940A0346
:10075000599A589882E090E09093010180930001AB
:1007600008955E9A599883E090E0909301018093F8
:10077000000108955F9A5E9884E090E090930101F3
:10078000809300010895CF92DF92EF92FF920E9432
:100790001406C0903801D0903901E0903A01F090F1
:1007A0003B019B01AC012C193D094E095F09690110
:1007B0007A01209104013091050140910601509188
:1007C0000701A8EEB3E00E948109C616D706E80625
:1007D000F906C4F0809102019091030101968530E1
:1007E000910514F081E090E0909303018093020161
:1007F0000E941406609338017093390180933A0186
:1008000090933B0180910201909103018230910508
:10081000A1F044F40197E9F4FF90EF90DF90CF90BE
:100820000C945A038330910571F0049791F4FF9072
:10083000EF90DF90CF900C94BA03FF90EF90DF9091
:10084000CF900C94A803FF90EF90DF90CF900C9482
:10085000B103FF90EF90DF90CF9008952FEF3FEF1F
:100860004AE050E063E070E080E491E00C9484049E
:10087000CF93CFB7F89480914C01811127C0E0EA63
:10088000F2E08491E9E8F2E09491E82FF0E0EE0FD5
:10089000FF1FE954FD4FA591B491EC91E92321F498
:1008A00061E08AE00E94050761E08AE00E94C906D3
:1008B0008CB580618CBD8CB580648CBD61E08DE0B1
:1008C0000E94C90661E08BE00E94C90680914C013C
:1008D0008F5F80934C01CFBFCF9108958EBD0000F4
:1008E0000DB407FEFDCF8EB508959CB5282F23705B
:1008F0009C7F922B9CBD2DB582FB992790F9822F6E
:100900008E7F892B8DBD0895CF93DF93EC01842FCB
:100910001E821F821886E4E0F0E0FA87E98791E002
:100920009B87488359833B832A8363307105C1F0D9
:100930003CF46130710561F06230710561F013C003
:100940006530710541F024F06630710549F00BC047
:1009500028E030E002C02AE030E03D832C8305C06F
:100960002CE030E0FACF1D821C8261E00E94C906B3
:1009700061E08A810E94C90661E088810E940507C2
:1009800061E08A810E9405070E9438048CB58F7D42
:100990008CBD8CB5837F8CBD8985DF91CF910C9404
:1009A0007504FC01608708956730710540F4FC010F
:1009B00072876187862F0E94750481E0089580E028
:1009C0000895EF92FF920F931F93CF93DF931F929F
:1009D000CDB7DEB78C017B01FC01848195818C3021
:1009E000910519F4FFE0FF2209C08A30910519F43E
:1009F00083E0F82203C0089709F4FF24F8018085FA
:100A0000882311F02A9807C060E0F80180814983AB
:100A10000E9405074981F801278181E0282730E0FD
:100A2000B901762F66277295770F707E9681292FF0
:100A300030E0C90190E4899F902D882711249B0103
:100A4000282B392B80E090E0942F97959927979544
:100A5000822B932B9061448155812CE030E0241B44
:100A6000350B02C0EE0CFF1C2A95E2F7E82AF92AA2
:100A70008F2D0E946E048E2D0E946E04F8018085D9
:100A8000882349F02A9A0F90DF91CF911F910F91FF
:100A9000FF90EF90089561E0F80180810F90DF9161
:100AA000CF911F910F91FF90EF900C94050740E0BC
:100AB00050E00C94E10408958230E8F4E82FF0E06F
:100AC000EE0FFF1FE85FFE4F71836083813041F0BE
:100AD000809169008C7F482B40936900E89A0895C3
:100AE00080916900440F551F440F551F837F482B89
:100AF00040936900E99A08951F920F920FB60F92E2
:100B000011242F933F934F935F936F937F938F9312
:100B10009F93AF93BF93EF93FF93E0910801F09100
:100B200009010995FF91EF91BF91AF919F918F912D
:100B30007F916F915F914F913F912F910F900FBED9
:100B40000F901F9018951F920F920FB60F921124BD
:100B50002F933F934F935F936F937F938F939F93C5
:100B6000AF93BF93EF93FF93E0910A01F0910B01D4
:100B70000995FF91EF91BF91AF919F918F917F91D7
:100B80006F915F914F913F912F910F900FBE0F90FA
:100B90001F9018951F920F920FB60F9211242F934A
:100BA0003F938F939F93AF93BF9380914E0190910A
:100BB0004F01A0915001B091510130914D0123E0BE
:100BC000230F2D3720F40196A11DB11D05C026E885
:100BD000230F0296A11DB11D20934D0180934E015C
:100BE00090934F01A0935001B09351018091520115
:100BF00090915301A0915401B09155010196A11D0E
:100C0000B11D8093520190935301A0935401B0936E
:100C10005501BF91AF919F918F913F912F910F906F
:100C20000FBE0F901F9018953FB7F8948091520116
:100C300090915301A0915401B091550126B5A89B04
:100C400005C02F3F19F00196A11DB11D3FBFBA2F5E
:100C5000A92F982F8827820F911DA11DB11DBC01BE
:100C6000CD0142E0660F771F881F991F4A95D1F783
:100C700008958230910538F0880F991F880F991FC9
:100C800005970197F1F70895789484B5826084BD43
:100C900084B5816084BD85B5826085BD85B5816080
:100CA00085BDEEE6F0E0808181608083E1E8F0E0E0
:100CB0001082808182608083808181608083E0E80F
:100CC000F0E0808181608083E1EBF0E080818460EE
:100CD0008083E0EBF0E0808181608083EAE7F0E0F0
:100CE0008081846080838081826080838081816054
:100CF00080838081806880831092C100089588304D
:100D000028F08E3010F08E5001C08FEF8770209148
:100D10000C0190E4299F90011124822B80937C0088
:100D200080917A00806480937A0080917A0086FDB9
:100D3000FCCF809178002091790090E0922B08956B
:100D4000843081F028F4823099F08330A1F0089546
:100D50008830A9F08930B9F08530D1F480918000D5
:100D60008F7D03C0809180008F77809380000895ED
:100D700084B58F7702C084B58F7D84BD089580913E
:100D8000B0008F7703C08091B0008F7D8093B0005A
:100D90000895CF93DF9390E0FC01E158FD4F24913B
:100DA000FC01EA56FD4F8491882361F190E0880FA1
:100DB000991FFC01E954FD4FC591D491FC01E35505
:100DC000FD4FA591B491611109C09FB7F894888136
:100DD000209582238883EC912E230BC0623061F42E
:100DE0009FB7F8943881822F809583238883EC9174
:100DF0002E2B2C939FBF06C08FB7F894E8812E2B23
:100E000028838FBFDF91CF9108951F93CF93DF93F6
:100E1000282F30E0F901E859FD4F8491F901E1589C
:100E2000FD4FD491F901EA56FD4FC491CC23C9F08E
:100E3000162F81110E94A006EC2FF0E0EE0FFF1F8D
:100E4000E355FD4FA591B4918FB7F894111105C0EA
:100E50009C91ED2FE095E92302C0EC91ED2BEC93F2
:100E60008FBFDF91CF911F9108954F925F926F9244
:100E70007F92AF92BF92CF92DF92EF92FF920F9349
:100E80001F93CF93DF93CDB7DEB729013A019B01C2
:100E9000AC01241935094609570989899A89AB8912
:100EA000BC89BC01CD016A197B098C099D090E948E
:100EB0005209A801970124193509460957090E94CA
:100EC0006209CA01B9016A0D7B1D8C1D9D1DDF9150
:100ED000CF911F910F91FF90EF90DF90CF90BF9037
:100EE000AF907F906F905F904F90089508950E940B
:100EF00044060E9476070E946303C0E0D0E00E948F
:100F000087022097E1F30E940000F9CF0E94700849
:100F100008F481E008950E949F070C94AB080E949A
:100F2000A40858F00E949D0840F029F45F3F29F082
:100F30000C94940851110C94DF080C949A080E94A8
:100F4000BC0868F39923B1F3552391F3951B550B16
:100F5000BB27AA2762177307840738F09F5F5F4F8C
:100F6000220F331F441FAA1FA9F335D00E2E3AF0CB
:100F7000E0E832D091505040E695001CCAF72BD0E3
:100F8000FE2F29D0660F771F881FBB1F2617370734
:100F90004807AB07B0E809F0BB0B802DBF01FF2766
:100FA00093585F4F3AF09E3F510578F00C949408A7
:100FB0000C94DF085F3FE4F3983ED4F38695779571
:100FC0006795B795F7959F5FC9F7880F911D96951F
:100FD000879597F90895E1E0660F771F881FBB1F7B
:100FE000621773078407BA0720F0621B730B840B28
:100FF000BA0BEE1F88F7E09508950E9404086894E4
:10100000B1110C94DF0808950E94C40888F09F571E
:1010100098F0B92F9927B751B0F0E1F0660F771F1C
:10102000881F991F1AF0BA95C9F714C0B13091F012
:101030000E94DE08B1E008950C94DE08672F782F37
:101040008827B85F39F0B93FCCF3869577956795D7
:10105000B395D9F73EF490958095709561957F4F43
:101060008F4F9F4F0895E89409C097FB3EF49095E9
:101070008095709561957F4F8F4F9F4F9923A9F071
:10108000F92F96E9BB279395F69587957795679500
:10109000B795F111F8CFFAF4BB0F11F460FF1BC044
:1010A0006F5F7F4F8F4F9F4F16C0882311F096E9D7
:1010B00011C0772321F09EE8872F762F05C0662385
:1010C00071F096E8862F70E060E02AF09A95660F3E
:1010D000771F881FDAF7880F9695879597F90895F7
:1010E000990F0008550FAA0BE0E8FEEF1616170639
:1010F000E807F907C0F012161306E407F50798F0A1
:10110000621B730B840B950B39F40A2661F0232BB9
:10111000242B252B21F408950A2609F4A140A69535
:101120008FEF811D811D089597F99F6780E870E01A
:1011300060E008959FEF80EC089500240A9416164D
:10114000170618060906089500240A9412161306B5
:10115000140605060895092E0394000C11F4882343
:1011600052F0BB0F40F4BF2B11F460FF04C06F5F5F
:101170007F4F8F4F9F4F089557FD9058440F551F35
:1011800059F05F3F71F04795880F97FB991F61F009
:101190009F3F79F087950895121613061406551F80
:1011A000F2CF4695F1DF08C0161617061806991FEC
:1011B000F1CF86957105610508940895E894BB27E1
:1011C00066277727CB0197F908950E94F8080C94B9
:1011D000AB080E949D0838F00E94A40820F09523D7
:1011E00011F00C9494080C949A0811240C94DF08C4
:1011F0000E94BC0870F3959FC1F3950F50E0551FF6
:10120000629FF001729FBB27F00DB11D639FAA275B
:10121000F00DB11DAA1F649F6627B00DA11D661FAA
:10122000829F2227B00DA11D621F739FB00DA11DCB
:10123000621F839FA00D611D221F749F3327A00D85
:10124000611D231F849F600D211D822F762F6A2F21
:1012500011249F5750409AF0F1F088234AF0EE0F86
:10126000FF1FBB1F661F771F881F91505040A9F7B3
:101270009E3F510580F00C9494080C94DF085F3F6A
:10128000E4F3983ED4F3869577956795B795F795EF
:10129000E7959F5FC1F7FE2B880F911D9695879567
:1012A00097F90895DB018F939F930E948109BF9165
:1012B000AF91A29F800D911DA39F900DB29F900DA5
:1012C00011240895052E97FB1EF400940E947909BD
:1012D00057FD07D00E948C0907FC03D04EF40C94F4
:1012E000790950954095309521953F4F4F4F5F4F6D
:1012F000089590958095709561957F4F8F4F9F4F82
:1013000008950E94B409A59F900DB49F900DA49FCD
:10131000800D911D11240895A1E21A2EAA1BBB1B5A
:10132000FD010DC0AA1FBB1FEE1FFF1FA217B307B1
:10133000E407F50720F0A21BB30BE40BF50B661FC7
:10134000771F881F991F1A9469F76095709580958B
:1013500090959B01AC01BD01CF010895EE0FFF1FD9
:101360000590F491E02D0994A29FB001B39FC001B4
:10137000A39F700D811D1124911DB29F700D811DC1
:0A1380001124911D0895F894FFCF89
:0E138A00010001000F0000005B0500000100E3
:00000001FF
