:100000000C9461000C9473000C9473000C947300B6
:100010000C9473000C9473000C9473000C94730094
:100020000C9473000C9473000C9473000C94730084
:100030000C9473000C9473000C9473000C94730074
:100040000C9468010C9473000C9473000C9473006E
:100050000C9473000C9473000C9473000C94730054
:100060000C9473000C947300000000002300260021
:10007000290000000000240027002A0000000000E2
:10008000250028002B0004040404040404040202D4
:100090000202020203030303030301020408102007
:1000A0004080010204081020010204081020000012
:1000B0000008000201000003040700000000000027
:1000C000000011241FBECFEFD8E0DEBFCDBF21E07E
:1000D000A0E0B1E001C01D92AF30B207E1F70E948D
:1000E000B2010C947C020C940000833081F028F45F
:1000F000813099F08230A1F008958730A9F08830DE
:10010000B9F08430D1F4809180008F7D03C080915C
:1001100080008F7780938000089584B58F7702C028
:1001200084B58F7D84BD08958091B0008F7703C022
:100130008091B0008F7D8093B00008951F93CF937E
:10014000DF93282F30E0F901E255FF4F8491F90148
:10015000E656FF4FD491F901EA57FF4FC491CC23E3
:10016000C1F0162F81110E947500EC2FF0E0EE0F08
:10017000FF1FE458FF4FA591B4919FB7F894111158
:1001800004C08C91D095D82302C0EC91DE2BDC9377
:100190009FBFDF91CF911F910895CF93DF9390E0A0
:1001A000FC01E656FF4F2491FC01EA57FF4F849172
:1001B000882361F190E0880F991FFC01EE58FF4FF2
:1001C000C591D491FC01E458FF4FA591B491611100
:1001D00009C09FB7F8948881209582238883EC9189
:1001E0002E230BC0623061F49FB7F8948881322FC0
:1001F000309583238883EC912E2B2C939FBF06C0D0
:100200008FB7F894E8812E2B28838FBFDF91CF9191
:1002100008953FB7F89480910B0190910C01A09143
:100220000D01B0910E0126B5A89B05C02F3F19F016
:100230000196A11DB11D3FBFBA2FA92F982F882766
:10024000820F911DA11DB11DBC01CD0142E0660FC1
:10025000771F881F991F4A95D1F708958F929F9213
:10026000AF92BF92CF92DF92EF92FF926B017C012F
:100270000E9409014B015C01C114D104E104F104A5
:10028000F1F00E940901DC01CB0188199909AA0942
:10029000BB09883E9340A105B10570F321E0C21A65
:1002A000D108E108F10888EE880E83E0981EA11CB1
:1002B000B11CC114D104E104F10419F7DDCFFF90A2
:1002C000EF90DF90CF90BF90AF909F908F90089568
:1002D0001F920F920FB60F9211242F933F938F937B
:1002E0009F93AF93BF938091070190910801A091D4
:1002F0000901B0910A013091060123E0230F2D3747
:1003000020F40196A11DB11D05C026E8230F029619
:10031000A11DB11D20930601809307019093080150
:10032000A0930901B0930A0180910B0190910C01F7
:10033000A0910D01B0910E010196A11DB11D8093F8
:100340000B0190930C01A0930D01B0930E01BF918E
:10035000AF919F918F913F912F910F900FBE0F9072
:100360001F901895789484B5826084BD84B58160AF
:1003700084BD85B5826085BD85B5816085BD809170
:100380006E00816080936E001092810080918100E8
:1003900082608093810080918100816080938100E0
:1003A000809180008160809380008091B1008460A2
:1003B0008093B1008091B00081608093B000809103
:1003C0007A00846080937A0080917A0082608093C2
:1003D0007A0080917A00816080937A0080917A001F
:1003E000806880937A001092C10061E081E00E94F1
:1003F000CD0061E083E00E94CD0062E084E00E94D5
:10040000CD0060E081E00E949E00C2EBD0E00EE9EA
:1004100010E09AE8E92E90E0F92E20E0C22E20E0CC
:10042000D22EAA24A394B12CFE018491F8019490B9
:10043000F7018490882079F081110E947500E82DE1
:10044000F0E0EE0FFF1FE859FF4FA591B4918C919A
:10045000982209F041C00E94090140900201509089
:1004600003016090040170900501DC01CB01841947
:100470009509A609B70988399A43A105B105E4F0A1
:1004800060E081E00E949E00809100019091010156
:10049000892B49F561E083E00E949E00B092010142
:1004A000A09200010E940901609302017093030170
:1004B00080930401909305016AE070E080E090E091
:1004C0000E942E0160E081E00E949E0064EF71E0D6
:1004D00080E090E00E942E01C114D10409F4A4CF61
:1004E0000E940000A1CF60E083E00E949E00109275
:0C04F000010110920001D6CFF894FFCF5C
:00000001FF
