:1000000026C035C034C033C032C010C130C02FC08C
:100010002EC02DC02CC02BC02AC029C028C0000073
:10002000000036000000000037000000000038002B
:10003000020202020202020202020102040810206D
:100040002004100801020000040000000000112438
:100050001FBECFE5D1E0DEBFCDBF20E0A0E6B0E01F
:1000600001C01D92AF36B207E1F72AD1BBC1C8CF9C
:10007000823081F018F4813051F00895833019F006
:10008000843009F008958CB58F7D8CBD08958AB5B4
:100090008F7702C08AB58F7D8ABD08951F93CF9355
:1000A000DF93282F30E0F901EC5BFF4F8491F901D9
:1000B000E65CFF4FD491F901E05DFF4FC491CC2382
:1000C000B9F0162F8111D4DFEC2FF0E0EE0FFF1FF7
:1000D000E65DFF4FA591B4919FB7F894111104C04C
:1000E0008C91D095D82302C0EC91DE2BDC939FBF7E
:1000F000DF91CF911F910895CF93DF9390E0FC01A2
:10010000E65CFF4F2491FC01E05DFF4F8491882362
:1001100061F190E0880F991FFC01EC5DFF4FC591E4
:10012000D491FC01E65DFF4FA591B491611109C026
:100130009FB7F8948881209582238883EC912E23A1
:100140000BC0623061F49FB7F8948881322F3095EC
:1001500083238883EC912E2B2C939FBF06C08FB7EF
:10016000F894E8812E2B28838FBFDF91CF910895DB
:100170003FB7F89480916B0090916C00A0916D0056
:10018000B0916E0022B708B601FE05C02F3F19F0EE
:100190000196A11DB11D3FBFBA2FA92F982F882707
:1001A000820F911DA11DB11DBC01CD0146E0660F5E
:1001B000771F881F991F4A95D1F708958F929F92B4
:1001C000AF92BF92CF92DF92EF92FF926B017C01D0
:1001D000CFDF4B015C01C114D104E104F104E9F06B
:1001E000C7DFDC01CB0188199909AA09BB09883E40
:1001F0009340A105B10578F321E0C21AD108E108C6
:10020000F10888EE880E83E0981EA11CB11CC11471
:10021000D104E104F10421F7DECFFF90EF90DF90ED
:10022000CF90BF90AF909F908F9008951F920F92A4
:100230000FB60F9211242F933F938F939F93AF93F9
:10024000BF938091670090916800A0916900B09180
:100250006A003091660020E3230F2D3720F440968A
:10026000A11DB11D05C023EB230F4196A11DB11D9A
:10027000209366008093670090936800A0936900C4
:10028000B0936A0080916B0090916C00A0916D001A
:10029000B0916E000196A11DB11D80936B009093EB
:1002A0006C00A0936D00B0936E00BF91AF919F91D1
:1002B0008F913F912F910F900FBE0F901F90189527
:1002C00078948AB582608ABD8AB581608ABD83B719
:1002D000826083BF83B7816083BF89B7826089BF33
:1002E00080B7826080BF3298319A309A379A8CB545
:1002F00080648CBD61E081E0FFDE61E083E0FCDED4
:1003000062E084E0F9DE60E081E0C8DEC8E4D0E0CD
:100310000EE310E094E3E92E90E0F92E20E0C22EE7
:1003200020E0D22EAA24A394B12CFE018491F801DE
:100330009490F7018490882069F0811199DEE82D6E
:10034000F0E0EE0FFF1FE25EFF4FA591B4918C919C
:100350009822D1F50DDF40906200509063006090CC
:10036000640070906500DC01CB0184199509A60931
:10037000B70988399A43A105B105CCF060E081E066
:100380008DDE8091600090916100892B19F561E00C
:1003900083E084DEB0926100A0926000E9DE6093A9
:1003A00062007093630080936400909365006AE03C
:1003B00070E080E090E002DF60E081E06FDE64EFFB
:1003C00071E080E090E0FADEC114D10409F4ADCF11
:1003D00017DEABCF60E083E061DE10926100109227
:0803E0006000DCCFF894FFCFB0
:00000001FF
