:1000000026C035C034C033C032C011C130C02FC08B
:100010002EC02DC02CC02BC02AC029C028C0000073
:10002000000037000000000038000000000036002B
:10003000020202020202020202020102040810206D
:100040002004100801020000040000000000112438
:100050001FBECFE5D1E0DEBFCDBF20E0A0E6B0E01F
:1000600001C01D92AF36B207E1F72BD1BDC1C8CF99
:10007000823081F018F4813051F00895833019F006
:10008000843009F008958CB58F7D8CBD08958AB5B4
:100090008F7702C08AB58F7D8ABD08951F93CF9355
:1000A000DF93282F30E0F901EC5BFF4F8491F901D9
:1000B000E65CFF4FD491F901E05DFF4FC491CC2382
:1000C000C1F0162F8111D4DFEC2FF0E0EE0FFF1FEF
:1000D000EC5DFF4FA591B4918FB7F894111105C055
:1000E0009C91ED2FE095E92302C0EC91ED2BEC9370
:1000F0008FBFDF91CF911F910895CF93DF9390E051
:10010000FC01E65CFF4F2491FC01E05DFF4F849110
:10011000882361F190E0880F991FFC01E25EFF4F98
:10012000C591D491FC01EC5DFF4FA591B491611193
:1001300009C09FB7F8948881209582238883EC9129
:100140002E230BC0623061F49FB7F8943881822F60
:10015000809583238883EC912E2B2C939FBF06C020
:100160008FB7F894E8812E2B28838FBFDF91CF9132
:1001700008953FB7F8948091650090916600A09132
:100180006700B091680022B708B601FE05C02F3F96
:1001900019F00196A11DB11D3FBFBA2FA92F982FAD
:1001A0008827820F911DA11DB11DBC01CD0146E024
:1001B000660F771F881F991F4A95D1F708958F9270
:1001C0009F92AF92BF92CF92DF92EF92FF926B011C
:1001D0007C01CFDF4B015C01C114D104E104F104C7
:1001E000E9F0C7DFDC01CB0188199909AA09BB092D
:1001F000883E9340A105B10578F321E0C21AD108E9
:10020000E108F10888EE880E83E0981EA11CB11C5D
:10021000C114D104E104F10421F7DECFFF90EF9087
:10022000DF90CF90BF90AF909F908F9008951F92D6
:100230000F920FB60F9211242F933F938F939F939A
:10024000AF93BF938091610090916200A091630091
:10025000B09164003091600020E3230F2D3720F42B
:100260004096A11DB11D05C023EB230F4196A11D92
:10027000B11D209360008093610090936200A09371
:100280006300B09364008091650090916600A09136
:100290006700B09168000196A11DB11D80936500B3
:1002A00090936600A0936700B0936800BF91AF91F0
:1002B0009F918F913F912F910F900FBE0F901F90A4
:1002C000189578948AB582608ABD8AB581608ABDA6
:1002D00083B7826083BF83B7816083BF89B7826041
:1002E00089BF80B7826080BF3298319A309A379A3E
:1002F0008CB580648CBD61E081E0FFDE61E083E06D
:10030000FCDE62E084E0F9DE60E081E0C7DEC8E4A4
:10031000D0E00EE310E034E3E32E30E0F32E40E0D3
:10032000C42E40E0D42EAA24A394B12CFE018491C3
:10033000F8018490F7019490992071F0811198DE72
:10034000892D90E0880F991F865D9F4FFC01A59134
:10035000B4918C918822D1F50CDF40906B005090C5
:100360006C0060906D0070906E00DC01CB01841910
:100370009509A609B70988399A43A105B105CCF0BA
:1003800060E081E08BDE8091690090916A00892BAA
:1003900019F561E083E082DEB0926A00A092690004
:1003A000E8DE60936B0070936C0080936D00909317
:1003B0006E006AE070E080E090E001DF61E081E0E3
:1003C0006DDE64EF71E080E090E0F9DEC114D104ED
:1003D00009F4ACCF15DEAACF60E083E05FDE1092B7
:0C03E0006A0010926900DCCFF894FFCF97
:00000001FF
