:1000000026C035C034C033C032C0CCC030C02FC0D1
:100010002EC02DC02CC02BC02AC029C028C0000073
:10002000000037000000000038000000000036002B
:10003000020202020202020202020102040810206D
:100040002004100801020000040000000000112438
:100050001FBECFE5D1E0DEBFCDBF20E0A0E6B0E01F
:1000600001C01D92AF36B207E1F7E6D07AC1C8CF22
:10007000823089F018F4813051F00895833019F0FE
:10008000843009F008958CB58F7D8CBD08958AB5B4
:100090008F778ABD08958AB58F7DFBCF1F93CF934D
:1000A000DF93282F30E0F901EC5BFF4F8491F901D9
:1000B000E65CFF4FD491F901E05DFF4FC491CC2382
:1000C000A1F0162F8111D4DFEC2FF0E0EE0FFF1F0F
:1000D000EC5DFF4FA591B4918FB7F894EC9111119D
:1000E00008C0D095DE23DC938FBFDF91CF911F91A5
:1000F0000895DE2BF8CFCF93DF9390E0FC01E65C10
:10010000FF4F2491805D9F4FFC0184918823D1F0A3
:1001100090E0880F991FFC01E25EFF4FA591B4911A
:10012000FC01EC5DFF4FC591D491623071F49FB733
:10013000F8943C91822F809583238C93E8812E2B19
:1001400028839FBFDF91CF9108958FB7F894EC91EA
:100150002E2B2C938FBFF6CF3FB7F894809165007C
:1001600090916600A0916700B091680022B708B630
:1001700001FE05C02F3F19F00196A11DB11D3FBF23
:10018000BA2FA92F982F8827BC01CD01620F711DAE
:10019000811D911D43E0660F771F881F991F4A95A7
:1001A000D1F708951F920F920FB60F9211242F933B
:1001B0003F938F939F93AF93BF93809161009091F2
:1001C0006200A0916300B09164003091600026E06D
:1001D000230F2D3758F50296A11DB11D2093600005
:1001E0008093610090936200A0936300B0936400D9
:1001F0008091650090916600A0916700B0916800C1
:100200000196A11DB11D8093650090936600A09397
:100210006700B0936800BF91AF919F918F913F911C
:100220002F910F900FBE0F901F90189529E8230F64
:100230000396A11DB11DD2CF78948AB582608ABD84
:100240008AB581608ABD83B7826083BF83B78160CE
:1002500083BF89B7826089BF80B7826080BF80B763
:10026000816080BF329A319A3098379A8CB5806419
:100270008CBD61E081E03FDF61E083E03CDF62E074
:1002800084E039DF60E081E009DF08E410E09EE30C
:10029000E92E90E0F92E24E3C22E20E0D22ECCED00
:1002A000DEE230E0A32E30E0B32E88248394912C3C
:1002B000F8018491F7017490F6016490611035C0E3
:1002C0004BDF40906B0050906C0060906D00709020
:1002D0006E006419750986099709603177428105B6
:1002E00091059CF061E081E0D9DECE010197F1F744
:1002F0008091690090916A00892B59F561E083E053
:10030000CDDE90926A0080926900CE010197F1F7EC
:1003100060E081E0C3DE20DF60936B0070936C00CF
:1003200080936D0090936E000EC08111A1DEE62DCA
:10033000F0E0EE0FFF1FE65DFF4FA591B4918C91A9
:10034000782209F4BDCFA114B10409F4B1CF58DE6D
:10035000AFCF60E083E0A2DE10926A0010926900E5
:06036000D4CFF894FFCF9A
:00000001FF
