:1000000026C035C034C033C032C0D8C030C02FC0C5
:100010002EC02DC02CC02BC02AC029C028C0000073
:10002000000036000000000037000000000038002B
:10003000020202020202020202020102040810206D
:100040002004100801020000040000000000112438
:100050001FBECFE5D1E0DEBFCDBF20E0A0E6B0E01F
:1000600001C01D92AF36B207E1F7F2D086C1C8CF0A
:10007000823081F018F4813051F00895833019F006
:10008000843009F008958CB58F7D8CBD08958AB5B4
:100090008F7702C08AB58F7D8ABD08951F93CF9355
:1000A000DF93282F30E0F901EC5BFF4F8491F901D9
:1000B000E65CFF4FD491F901E05DFF4FC491CC2382
:1000C000B9F0162F8111D4DFEC2FF0E0EE0FFF1FF7
:1000D000E65DFF4FA591B4919FB7F894111104C04C
:1000E0008C91D095D82302C0EC91DE2BDC939FBF7E
:1000F000DF91CF911F910895CF93DF9390E0FC01A2
:10010000E65CFF4F2491FC01E05DFF4F8491882362
:1001100061F190E0880F991FFC01EC5DFF4FC591E4
:10012000D491FC01E65DFF4FA591B491611109C026
:100130009FB7F8948881209582238883EC912E23A1
:100140000BC0623061F49FB7F8948881322F3095EC
:1001500083238883EC912E2B2C939FBF06C08FB7EF
:10016000F894E8812E2B28838FBFDF91CF910895DB
:100170003FB7F89480916B0090916C00A0916D0056
:10018000B0916E0022B708B601FE05C02F3F19F0EE
:100190000196A11DB11D3FBFBA2FA92F982F882707
:1001A000820F911DA11DB11DBC01CD0143E0660F61
:1001B000771F881F991F4A95D1F708951F920F92B4
:1001C0000FB60F9211242F933F938F939F93AF936A
:1001D000BF938091670090916800A0916900B091F1
:1001E0006A003091660026E0230F2D3720F4029636
:1001F000A11DB11D05C029E8230F0396A11DB11D46
:10020000209366008093670090936800A093690034
:10021000B0936A0080916B0090916C00A0916D008A
:10022000B0916E000196A11DB11D80936B0090935B
:100230006C00A0936D00B0936E00BF91AF919F9141
:100240008F913F912F910F900FBE0F901F90189597
:1002500078948AB582608ABD8AB581608ABD83B789
:10026000826083BF83B7816083BF89B7826089BFA3
:1002700080B7826080BF80B7816080BF329A319A38
:100280003098379A8CB580648CBD61E081E034DFB2
:1002900061E083E031DF62E084E02EDF60E081E056
:1002A000FDDE08E410E09EE3E92E90E0F92E24E361
:1002B000C22E20E0D22EC8EDD5E030E0A32E30E0F3
:1002C000B32E88248394912CF8018491F7017490C3
:1002D000F6016490662069F08111CADEE62DF0E037
:1002E000EE0FFF1FE25EFF4FA591B4918C91782233
:1002F000B1F53EDF40906200509063006090640072
:1003000070906500DC01CB0184199509A609B70935
:1003100080319742A105B1059CF061E081E0BEDE2D
:10032000CE010197F1F78091600090916100892BD7
:10033000E1F461E083E0B2DE9092610080926000BF
:10034000CE010197F1F760E081E0A8DE11DF609354
:100350006200709363008093640090936500A11421
:10036000B10409F4B1CF4CDEAFCF60E083E096DE9C
:0E0370001092610010926000E3CFF894FFCF6E
:00000001FF
